{
  "contractName": "RailRoadTicket",
  "abi": [
    {
      "inputs": [],
      "stateMutability": "nonpayable",
      "type": "constructor"
    },
    {
      "anonymous": false,
      "inputs": [
        {
          "indexed": true,
          "internalType": "address",
          "name": "owner",
          "type": "address"
        },
        {
          "indexed": true,
          "internalType": "address",
          "name": "approved",
          "type": "address"
        },
        {
          "indexed": true,
          "internalType": "uint256",
          "name": "tokenId",
          "type": "uint256"
        }
      ],
      "name": "Approval",
      "type": "event"
    },
    {
      "anonymous": false,
      "inputs": [
        {
          "indexed": true,
          "internalType": "address",
          "name": "owner",
          "type": "address"
        },
        {
          "indexed": true,
          "internalType": "address",
          "name": "operator",
          "type": "address"
        },
        {
          "indexed": false,
          "internalType": "bool",
          "name": "approved",
          "type": "bool"
        }
      ],
      "name": "ApprovalForAll",
      "type": "event"
    },
    {
      "anonymous": false,
      "inputs": [
        {
          "indexed": true,
          "internalType": "address",
          "name": "previousOwner",
          "type": "address"
        },
        {
          "indexed": true,
          "internalType": "address",
          "name": "newOwner",
          "type": "address"
        }
      ],
      "name": "OwnershipTransferred",
      "type": "event"
    },
    {
      "anonymous": false,
      "inputs": [
        {
          "indexed": true,
          "internalType": "address",
          "name": "from",
          "type": "address"
        },
        {
          "indexed": true,
          "internalType": "address",
          "name": "to",
          "type": "address"
        },
        {
          "indexed": true,
          "internalType": "uint256",
          "name": "tokenId",
          "type": "uint256"
        }
      ],
      "name": "Transfer",
      "type": "event"
    },
    {
      "inputs": [],
      "name": "MAX_TICKET_BUY_PER_TRANSAC",
      "outputs": [
        {
          "internalType": "uint256",
          "name": "",
          "type": "uint256"
        }
      ],
      "stateMutability": "view",
      "type": "function",
      "constant": true
    },
    {
      "inputs": [],
      "name": "TICKET_PRICE",
      "outputs": [
        {
          "internalType": "uint256",
          "name": "",
          "type": "uint256"
        }
      ],
      "stateMutability": "view",
      "type": "function",
      "constant": true
    },
    {
      "inputs": [
        {
          "internalType": "address",
          "name": "to",
          "type": "address"
        },
        {
          "internalType": "uint256",
          "name": "tokenId",
          "type": "uint256"
        }
      ],
      "name": "approve",
      "outputs": [],
      "stateMutability": "nonpayable",
      "type": "function"
    },
    {
      "inputs": [
        {
          "internalType": "address",
          "name": "owner",
          "type": "address"
        }
      ],
      "name": "balanceOf",
      "outputs": [
        {
          "internalType": "uint256",
          "name": "",
          "type": "uint256"
        }
      ],
      "stateMutability": "view",
      "type": "function",
      "constant": true
    },
    {
      "inputs": [
        {
          "internalType": "uint256",
          "name": "tokenId",
          "type": "uint256"
        }
      ],
      "name": "getApproved",
      "outputs": [
        {
          "internalType": "address",
          "name": "",
          "type": "address"
        }
      ],
      "stateMutability": "view",
      "type": "function",
      "constant": true
    },
    {
      "inputs": [
        {
          "internalType": "address",
          "name": "owner",
          "type": "address"
        },
        {
          "internalType": "address",
          "name": "operator",
          "type": "address"
        }
      ],
      "name": "isApprovedForAll",
      "outputs": [
        {
          "internalType": "bool",
          "name": "",
          "type": "bool"
        }
      ],
      "stateMutability": "view",
      "type": "function",
      "constant": true
    },
    {
      "inputs": [],
      "name": "name",
      "outputs": [
        {
          "internalType": "string",
          "name": "",
          "type": "string"
        }
      ],
      "stateMutability": "view",
      "type": "function",
      "constant": true
    },
    {
      "inputs": [],
      "name": "owner",
      "outputs": [
        {
          "internalType": "address",
          "name": "",
          "type": "address"
        }
      ],
      "stateMutability": "view",
      "type": "function",
      "constant": true
    },
    {
      "inputs": [
        {
          "internalType": "uint256",
          "name": "tokenId",
          "type": "uint256"
        }
      ],
      "name": "ownerOf",
      "outputs": [
        {
          "internalType": "address",
          "name": "",
          "type": "address"
        }
      ],
      "stateMutability": "view",
      "type": "function",
      "constant": true
    },
    {
      "inputs": [],
      "name": "renounceOwnership",
      "outputs": [],
      "stateMutability": "nonpayable",
      "type": "function"
    },
    {
      "inputs": [
        {
          "internalType": "address",
          "name": "from",
          "type": "address"
        },
        {
          "internalType": "address",
          "name": "to",
          "type": "address"
        },
        {
          "internalType": "uint256",
          "name": "tokenId",
          "type": "uint256"
        }
      ],
      "name": "safeTransferFrom",
      "outputs": [],
      "stateMutability": "nonpayable",
      "type": "function"
    },
    {
      "inputs": [
        {
          "internalType": "address",
          "name": "from",
          "type": "address"
        },
        {
          "internalType": "address",
          "name": "to",
          "type": "address"
        },
        {
          "internalType": "uint256",
          "name": "tokenId",
          "type": "uint256"
        },
        {
          "internalType": "bytes",
          "name": "data",
          "type": "bytes"
        }
      ],
      "name": "safeTransferFrom",
      "outputs": [],
      "stateMutability": "nonpayable",
      "type": "function"
    },
    {
      "inputs": [
        {
          "internalType": "address",
          "name": "operator",
          "type": "address"
        },
        {
          "internalType": "bool",
          "name": "approved",
          "type": "bool"
        }
      ],
      "name": "setApprovalForAll",
      "outputs": [],
      "stateMutability": "nonpayable",
      "type": "function"
    },
    {
      "inputs": [
        {
          "internalType": "bytes4",
          "name": "interfaceId",
          "type": "bytes4"
        }
      ],
      "name": "supportsInterface",
      "outputs": [
        {
          "internalType": "bool",
          "name": "",
          "type": "bool"
        }
      ],
      "stateMutability": "view",
      "type": "function",
      "constant": true
    },
    {
      "inputs": [],
      "name": "symbol",
      "outputs": [
        {
          "internalType": "string",
          "name": "",
          "type": "string"
        }
      ],
      "stateMutability": "view",
      "type": "function",
      "constant": true
    },
    {
      "inputs": [
        {
          "internalType": "uint256",
          "name": "index",
          "type": "uint256"
        }
      ],
      "name": "tokenByIndex",
      "outputs": [
        {
          "internalType": "uint256",
          "name": "",
          "type": "uint256"
        }
      ],
      "stateMutability": "view",
      "type": "function",
      "constant": true
    },
    {
      "inputs": [
        {
          "internalType": "address",
          "name": "owner",
          "type": "address"
        },
        {
          "internalType": "uint256",
          "name": "index",
          "type": "uint256"
        }
      ],
      "name": "tokenOfOwnerByIndex",
      "outputs": [
        {
          "internalType": "uint256",
          "name": "",
          "type": "uint256"
        }
      ],
      "stateMutability": "view",
      "type": "function",
      "constant": true
    },
    {
      "inputs": [
        {
          "internalType": "uint256",
          "name": "tokenId",
          "type": "uint256"
        }
      ],
      "name": "tokenURI",
      "outputs": [
        {
          "internalType": "string",
          "name": "",
          "type": "string"
        }
      ],
      "stateMutability": "view",
      "type": "function",
      "constant": true
    },
    {
      "inputs": [],
      "name": "totalSupply",
      "outputs": [
        {
          "internalType": "uint256",
          "name": "",
          "type": "uint256"
        }
      ],
      "stateMutability": "view",
      "type": "function",
      "constant": true
    },
    {
      "inputs": [
        {
          "internalType": "address",
          "name": "from",
          "type": "address"
        },
        {
          "internalType": "address",
          "name": "to",
          "type": "address"
        },
        {
          "internalType": "uint256",
          "name": "tokenId",
          "type": "uint256"
        }
      ],
      "name": "transferFrom",
      "outputs": [],
      "stateMutability": "nonpayable",
      "type": "function"
    },
    {
      "inputs": [
        {
          "internalType": "address",
          "name": "newOwner",
          "type": "address"
        }
      ],
      "name": "transferOwnership",
      "outputs": [],
      "stateMutability": "nonpayable",
      "type": "function"
    },
    {
      "inputs": [
        {
          "internalType": "contract RailRoadCard",
          "name": "railRoadCardInstance",
          "type": "address"
        },
        {
          "internalType": "uint256",
          "name": "count",
          "type": "uint256"
        },
        {
          "internalType": "enum RailRoadTicket.TICKET_TYPE",
          "name": "ticketType",
          "type": "uint8"
        },
        {
          "internalType": "uint256",
          "name": "askedReduction",
          "type": "uint256"
        }
      ],
      "name": "buyTickets",
      "outputs": [],
      "stateMutability": "payable",
      "type": "function",
      "payable": true
    },
    {
      "inputs": [],
      "name": "getOwnedTickets",
      "outputs": [
        {
          "components": [
            {
              "internalType": "enum RailRoadTicket.TICKET_TYPE",
              "name": "ticketType",
              "type": "uint8"
            }
          ],
          "internalType": "struct RailRoadTicket.Ticket[]",
          "name": "",
          "type": "tuple[]"
        }
      ],
      "stateMutability": "view",
      "type": "function",
      "constant": true
    }
  ],
  "bytecode": "0x60806040523480156200001157600080fd5b506040518060400160405280601181526020017f5375705261696c526f61645469636b65740000000000000000000000000000008152506040518060400160405280600481526020017f53525254000000000000000000000000000000000000000000000000000000008152506200009e62000092620000d860201b60201c565b620000e060201b60201c565b8160019080519060200190620000b6929190620001a4565b508060029080519060200190620000cf929190620001a4565b505050620002b8565b600033905090565b60008060009054906101000a900473ffffffffffffffffffffffffffffffffffffffff169050816000806101000a81548173ffffffffffffffffffffffffffffffffffffffff021916908373ffffffffffffffffffffffffffffffffffffffff1602179055508173ffffffffffffffffffffffffffffffffffffffff168173ffffffffffffffffffffffffffffffffffffffff167f8be0079c531659141344cd1fd0a4f28419497f9722a3daafe3b4186f6b6457e060405160405180910390a35050565b828054620001b29062000283565b90600052602060002090601f016020900481019282620001d6576000855562000222565b82601f10620001f157805160ff191683800117855562000222565b8280016001018555821562000222579182015b828111156200022157825182559160200191906001019062000204565b5b50905062000231919062000235565b5090565b5b808211156200025057600081600090555060010162000236565b5090565b7f4e487b7100000000000000000000000000000000000000000000000000000000600052602260045260246000fd5b600060028204905060018216806200029c57607f821691505b602082108103620002b257620002b162000254565b5b50919050565b613ebc80620002c86000396000f3fe6080604052600436106101405760003560e01c80634f6ccce7116100b6578063a22cb4651161006f578063a22cb46514610463578063b88d4fde1461048c578063c87b56dd146104b5578063d464d318146104f2578063e985e9c51461051d578063f2fde38b1461055a57610140565b80634f6ccce71461033f5780636352211e1461037c57806370a08231146103b9578063715018a6146103f65780638da5cb5b1461040d57806395d89b411461043857610140565b806318160ddd1161010857806318160ddd1461023e5780631a95f15f1461026957806323b872dd146102945780632f745c59146102bd5780633077e6a2146102fa57806342842e0e1461031657610140565b806301ffc9a71461014557806306fdde0314610182578063081812fc146101ad578063095ea7b3146101ea57806314f0419814610213575b600080fd5b34801561015157600080fd5b5061016c6004803603810190610167919061285f565b610583565b60405161017991906128a7565b60405180910390f35b34801561018e57600080fd5b506101976105fd565b6040516101a4919061295b565b60405180910390f35b3480156101b957600080fd5b506101d460048036038101906101cf91906129b3565b61068f565b6040516101e19190612a21565b60405180910390f35b3480156101f657600080fd5b50610211600480360381019061020c9190612a68565b6106d5565b005b34801561021f57600080fd5b506102286107ec565b6040516102359190612bea565b60405180910390f35b34801561024a57600080fd5b5061025361090c565b6040516102609190612c1b565b60405180910390f35b34801561027557600080fd5b5061027e610919565b60405161028b9190612c1b565b60405180910390f35b3480156102a057600080fd5b506102bb60048036038101906102b69190612c36565b610924565b005b3480156102c957600080fd5b506102e460048036038101906102df9190612a68565b610984565b6040516102f19190612c1b565b60405180910390f35b610314600480360381019061030f9190612cec565b610a29565b005b34801561032257600080fd5b5061033d60048036038101906103389190612c36565b610c77565b005b34801561034b57600080fd5b50610366600480360381019061036191906129b3565b610c97565b6040516103739190612c1b565b60405180910390f35b34801561038857600080fd5b506103a3600480360381019061039e91906129b3565b610d08565b6040516103b09190612a21565b60405180910390f35b3480156103c557600080fd5b506103e060048036038101906103db9190612d53565b610d8e565b6040516103ed9190612c1b565b60405180910390f35b34801561040257600080fd5b5061040b610e45565b005b34801561041957600080fd5b50610422610e59565b60405161042f9190612a21565b60405180910390f35b34801561044457600080fd5b5061044d610e82565b60405161045a919061295b565b60405180910390f35b34801561046f57600080fd5b5061048a60048036038101906104859190612dac565b610f14565b005b34801561049857600080fd5b506104b360048036038101906104ae9190612f21565b610f2a565b005b3480156104c157600080fd5b506104dc60048036038101906104d791906129b3565b610f8c565b6040516104e9919061295b565b60405180910390f35b3480156104fe57600080fd5b50610507610ff4565b6040516105149190612c1b565b60405180910390f35b34801561052957600080fd5b50610544600480360381019061053f9190612fa4565b610ff9565b60405161055191906128a7565b60405180910390f35b34801561056657600080fd5b50610581600480360381019061057c9190612d53565b61108d565b005b60007f780e9d63000000000000000000000000000000000000000000000000000000007bffffffffffffffffffffffffffffffffffffffffffffffffffffffff1916827bffffffffffffffffffffffffffffffffffffffffffffffffffffffff191614806105f657506105f582611110565b5b9050919050565b60606001805461060c90613013565b80601f016020809104026020016040519081016040528092919081815260200182805461063890613013565b80156106855780601f1061065a57610100808354040283529160200191610685565b820191906000526020600020905b81548152906001019060200180831161066857829003601f168201915b5050505050905090565b600061069a826111f2565b6005600083815260200190815260200160002060009054906101000a900473ffffffffffffffffffffffffffffffffffffffff169050919050565b60006106e082610d08565b90508073ffffffffffffffffffffffffffffffffffffffff168373ffffffffffffffffffffffffffffffffffffffff1603610750576040517f08c379a0000000000000000000000000000000000000000000000000000000008152600401610747906130b6565b60405180910390fd5b8073ffffffffffffffffffffffffffffffffffffffff1661076f61123d565b73ffffffffffffffffffffffffffffffffffffffff16148061079e575061079d8161079861123d565b610ff9565b5b6107dd576040517f08c379a00000000000000000000000000000000000000000000000000000000081526004016107d490613148565b60405180910390fd5b6107e78383611245565b505050565b6060600033905060006107fe82610d8e565b905060008167ffffffffffffffff81111561081c5761081b612df6565b5b60405190808252806020026020018201604052801561085557816020015b6108426127ce565b81526020019060019003908161083a5790505b50905060005b8281101561090257600061086f8583610984565b90506000600c60008381526020019081526020016000206040518060200160405290816000820160009054906101000a900460ff1660028111156108b6576108b5612ad4565b5b60028111156108c8576108c7612ad4565b5b815250509050808484815181106108e2576108e1613168565b5b6020026020010181905250505080806108fa906131c6565b91505061085b565b5080935050505090565b6000600980549050905090565b66f523226980800081565b61093561092f61123d565b826112fe565b610974576040517f08c379a000000000000000000000000000000000000000000000000000000000815260040161096b90613280565b60405180910390fd5b61097f838383611393565b505050565b600061098f83610d8e565b82106109d0576040517f08c379a00000000000000000000000000000000000000000000000000000000081526004016109c790613312565b60405180910390fd5b600760008473ffffffffffffffffffffffffffffffffffffffff1673ffffffffffffffffffffffffffffffffffffffff168152602001908152602001600020600083815260200190815260200160002054905092915050565b60008311610a6c576040517f08c379a0000000000000000000000000000000000000000000000000000000008152600401610a639061337e565b60405180910390fd5b808473ffffffffffffffffffffffffffffffffffffffff1663c414b089336040518263ffffffff1660e01b8152600401610aa69190612a21565b602060405180830381865afa158015610ac3573d6000803e3d6000fd5b505050506040513d601f19601f82011682018060405250810190610ae791906133b3565b14610b27576040517f08c379a0000000000000000000000000000000000000000000000000000000008152600401610b1e9061342c565b60405180910390fd5b600a831115610b6b576040517f08c379a0000000000000000000000000000000000000000000000000000000008152600401610b62906134be565b60405180910390fd5b6000610b878466f523226980800061168c90919063ffffffff16565b9050600060648383610b9991906134de565b610ba39190613567565b905060008183610bb39190613598565b905080341015610bf8576040517f08c379a0000000000000000000000000000000000000000000000000000000008152600401610bef90613618565b60405180910390fd5b60005b86811015610c1f57610c0c866116a2565b8080610c17906131c6565b915050610bfb565b50610c28610e59565b73ffffffffffffffffffffffffffffffffffffffff166108fc349081150290604051600060405180830381858888f19350505050158015610c6d573d6000803e3d6000fd5b5050505050505050565b610c9283838360405180602001604052806000815250610f2a565b505050565b6000610ca161090c565b8210610ce2576040517f08c379a0000000000000000000000000000000000000000000000000000000008152600401610cd9906136aa565b60405180910390fd5b60098281548110610cf657610cf5613168565b5b90600052602060002001549050919050565b600080610d148361172f565b9050600073ffffffffffffffffffffffffffffffffffffffff168173ffffffffffffffffffffffffffffffffffffffff1603610d85576040517f08c379a0000000000000000000000000000000000000000000000000000000008152600401610d7c90613716565b60405180910390fd5b80915050919050565b60008073ffffffffffffffffffffffffffffffffffffffff168273ffffffffffffffffffffffffffffffffffffffff1603610dfe576040517f08c379a0000000000000000000000000000000000000000000000000000000008152600401610df5906137a8565b60405180910390fd5b600460008373ffffffffffffffffffffffffffffffffffffffff1673ffffffffffffffffffffffffffffffffffffffff168152602001908152602001600020549050919050565b610e4d61176c565b610e5760006117ea565b565b60008060009054906101000a900473ffffffffffffffffffffffffffffffffffffffff16905090565b606060028054610e9190613013565b80601f0160208091040260200160405190810160405280929190818152602001828054610ebd90613013565b8015610f0a5780601f10610edf57610100808354040283529160200191610f0a565b820191906000526020600020905b815481529060010190602001808311610eed57829003601f168201915b5050505050905090565b610f26610f1f61123d565b83836118ae565b5050565b610f3b610f3561123d565b836112fe565b610f7a576040517f08c379a0000000000000000000000000000000000000000000000000000000008152600401610f7190613280565b60405180910390fd5b610f8684848484611a1a565b50505050565b6060610f97826111f2565b6000610fa1611a76565b90506000815111610fc15760405180602001604052806000815250610fec565b80610fcb84611a8d565b604051602001610fdc929190613804565b6040516020818303038152906040525b915050919050565b600a81565b6000600660008473ffffffffffffffffffffffffffffffffffffffff1673ffffffffffffffffffffffffffffffffffffffff16815260200190815260200160002060008373ffffffffffffffffffffffffffffffffffffffff1673ffffffffffffffffffffffffffffffffffffffff16815260200190815260200160002060009054906101000a900460ff16905092915050565b61109561176c565b600073ffffffffffffffffffffffffffffffffffffffff168173ffffffffffffffffffffffffffffffffffffffff1603611104576040517f08c379a00000000000000000000000000000000000000000000000000000000081526004016110fb9061389a565b60405180910390fd5b61110d816117ea565b50565b60007f80ac58cd000000000000000000000000000000000000000000000000000000007bffffffffffffffffffffffffffffffffffffffffffffffffffffffff1916827bffffffffffffffffffffffffffffffffffffffffffffffffffffffff191614806111db57507f5b5e139f000000000000000000000000000000000000000000000000000000007bffffffffffffffffffffffffffffffffffffffffffffffffffffffff1916827bffffffffffffffffffffffffffffffffffffffffffffffffffffffff1916145b806111eb57506111ea82611b5b565b5b9050919050565b6111fb81611bc5565b61123a576040517f08c379a000000000000000000000000000000000000000000000000000000000815260040161123190613716565b60405180910390fd5b50565b600033905090565b816005600083815260200190815260200160002060006101000a81548173ffffffffffffffffffffffffffffffffffffffff021916908373ffffffffffffffffffffffffffffffffffffffff160217905550808273ffffffffffffffffffffffffffffffffffffffff166112b883610d08565b73ffffffffffffffffffffffffffffffffffffffff167f8c5be1e5ebec7d5bd14f71427d1e84f3dd0314c0f7b2291e5b200ac8c7c3b92560405160405180910390a45050565b60008061130a83610d08565b90508073ffffffffffffffffffffffffffffffffffffffff168473ffffffffffffffffffffffffffffffffffffffff16148061134c575061134b8185610ff9565b5b8061138a57508373ffffffffffffffffffffffffffffffffffffffff166113728461068f565b73ffffffffffffffffffffffffffffffffffffffff16145b91505092915050565b8273ffffffffffffffffffffffffffffffffffffffff166113b382610d08565b73ffffffffffffffffffffffffffffffffffffffff1614611409576040517f08c379a00000000000000000000000000000000000000000000000000000000081526004016114009061392c565b60405180910390fd5b600073ffffffffffffffffffffffffffffffffffffffff168273ffffffffffffffffffffffffffffffffffffffff1603611478576040517f08c379a000000000000000000000000000000000000000000000000000000000815260040161146f906139be565b60405180910390fd5b6114858383836001611c06565b8273ffffffffffffffffffffffffffffffffffffffff166114a582610d08565b73ffffffffffffffffffffffffffffffffffffffff16146114fb576040517f08c379a00000000000000000000000000000000000000000000000000000000081526004016114f29061392c565b60405180910390fd5b6005600082815260200190815260200160002060006101000a81549073ffffffffffffffffffffffffffffffffffffffff02191690556001600460008573ffffffffffffffffffffffffffffffffffffffff1673ffffffffffffffffffffffffffffffffffffffff168152602001908152602001600020600082825403925050819055506001600460008473ffffffffffffffffffffffffffffffffffffffff1673ffffffffffffffffffffffffffffffffffffffff16815260200190815260200160002060008282540192505081905550816003600083815260200190815260200160002060006101000a81548173ffffffffffffffffffffffffffffffffffffffff021916908373ffffffffffffffffffffffffffffffffffffffff160217905550808273ffffffffffffffffffffffffffffffffffffffff168473ffffffffffffffffffffffffffffffffffffffff167fddf252ad1be2c89b69c2b068fc378daa952ba7f163c4a11628f55a4df523b3ef60405160405180910390a46116878383836001611c87565b505050565b6000818361169a91906134de565b905092915050565b60006116ae600b611c8d565b90506116ba600b611c9b565b60405180602001604052808360028111156116d8576116d7612ad4565b5b815250600c600083815260200190815260200160002060008201518160000160006101000a81548160ff0219169083600281111561171957611718612ad4565b5b021790555090505061172b3382611cb1565b5050565b60006003600083815260200190815260200160002060009054906101000a900473ffffffffffffffffffffffffffffffffffffffff169050919050565b61177461123d565b73ffffffffffffffffffffffffffffffffffffffff16611792610e59565b73ffffffffffffffffffffffffffffffffffffffff16146117e8576040517f08c379a00000000000000000000000000000000000000000000000000000000081526004016117df90613a2a565b60405180910390fd5b565b60008060009054906101000a900473ffffffffffffffffffffffffffffffffffffffff169050816000806101000a81548173ffffffffffffffffffffffffffffffffffffffff021916908373ffffffffffffffffffffffffffffffffffffffff1602179055508173ffffffffffffffffffffffffffffffffffffffff168173ffffffffffffffffffffffffffffffffffffffff167f8be0079c531659141344cd1fd0a4f28419497f9722a3daafe3b4186f6b6457e060405160405180910390a35050565b8173ffffffffffffffffffffffffffffffffffffffff168373ffffffffffffffffffffffffffffffffffffffff160361191c576040517f08c379a000000000000000000000000000000000000000000000000000000000815260040161191390613a96565b60405180910390fd5b80600660008573ffffffffffffffffffffffffffffffffffffffff1673ffffffffffffffffffffffffffffffffffffffff16815260200190815260200160002060008473ffffffffffffffffffffffffffffffffffffffff1673ffffffffffffffffffffffffffffffffffffffff16815260200190815260200160002060006101000a81548160ff0219169083151502179055508173ffffffffffffffffffffffffffffffffffffffff168373ffffffffffffffffffffffffffffffffffffffff167f17307eab39ab6107e8899845ad3d59bd9653f200f220920489ca2b5937696c3183604051611a0d91906128a7565b60405180910390a3505050565b611a25848484611393565b611a3184848484611ccf565b611a70576040517f08c379a0000000000000000000000000000000000000000000000000000000008152600401611a6790613b28565b60405180910390fd5b50505050565b606060405180602001604052806000815250905090565b606060006001611a9c84611e56565b01905060008167ffffffffffffffff811115611abb57611aba612df6565b5b6040519080825280601f01601f191660200182016040528015611aed5781602001600182028036833780820191505090505b509050600082602001820190505b600115611b50578080600190039150507f3031323334353637383961626364656600000000000000000000000000000000600a86061a8153600a8581611b4457611b43613538565b5b04945060008503611afb575b819350505050919050565b60007f01ffc9a7000000000000000000000000000000000000000000000000000000007bffffffffffffffffffffffffffffffffffffffffffffffffffffffff1916827bffffffffffffffffffffffffffffffffffffffffffffffffffffffff1916149050919050565b60008073ffffffffffffffffffffffffffffffffffffffff16611be78361172f565b73ffffffffffffffffffffffffffffffffffffffff1614159050919050565b600073ffffffffffffffffffffffffffffffffffffffff168473ffffffffffffffffffffffffffffffffffffffff1614611c75576040517f08c379a0000000000000000000000000000000000000000000000000000000008152600401611c6c90613b94565b60405180910390fd5b611c8184848484611fa9565b50505050565b50505050565b600081600001549050919050565b6001816000016000828254019250508190555050565b611ccb828260405180602001604052806000815250612107565b5050565b6000611cf08473ffffffffffffffffffffffffffffffffffffffff16612162565b15611e49578373ffffffffffffffffffffffffffffffffffffffff1663150b7a02611d1961123d565b8786866040518563ffffffff1660e01b8152600401611d3b9493929190613c09565b6020604051808303816000875af1925050508015611d7757506040513d601f19601f82011682018060405250810190611d749190613c6a565b60015b611df9573d8060008114611da7576040519150601f19603f3d011682016040523d82523d6000602084013e611dac565b606091505b506000815103611df1576040517f08c379a0000000000000000000000000000000000000000000000000000000008152600401611de890613b28565b60405180910390fd5b805181602001fd5b63150b7a0260e01b7bffffffffffffffffffffffffffffffffffffffffffffffffffffffff1916817bffffffffffffffffffffffffffffffffffffffffffffffffffffffff191614915050611e4e565b600190505b949350505050565b600080600090507a184f03e93ff9f4daa797ed6e38ed64bf6a1f0100000000000000008310611eb4577a184f03e93ff9f4daa797ed6e38ed64bf6a1f0100000000000000008381611eaa57611ea9613538565b5b0492506040810190505b6d04ee2d6d415b85acef81000000008310611ef1576d04ee2d6d415b85acef81000000008381611ee757611ee6613538565b5b0492506020810190505b662386f26fc100008310611f2057662386f26fc100008381611f1657611f15613538565b5b0492506010810190505b6305f5e1008310611f49576305f5e1008381611f3f57611f3e613538565b5b0492506008810190505b6127108310611f6e576127108381611f6457611f63613538565b5b0492506004810190505b60648310611f915760648381611f8757611f86613538565b5b0492506002810190505b600a8310611fa0576001810190505b80915050919050565b611fb584848484612185565b6001811115611ff9576040517f08c379a0000000000000000000000000000000000000000000000000000000008152600401611ff090613d09565b60405180910390fd5b6000829050600073ffffffffffffffffffffffffffffffffffffffff168573ffffffffffffffffffffffffffffffffffffffff16036120405761203b816122ab565b61207f565b8373ffffffffffffffffffffffffffffffffffffffff168573ffffffffffffffffffffffffffffffffffffffff161461207e5761207d85826122f4565b5b5b600073ffffffffffffffffffffffffffffffffffffffff168473ffffffffffffffffffffffffffffffffffffffff16036120c1576120bc81612461565b612100565b8473ffffffffffffffffffffffffffffffffffffffff168473ffffffffffffffffffffffffffffffffffffffff16146120ff576120fe8482612532565b5b5b5050505050565b61211183836125b1565b61211e6000848484611ccf565b61215d576040517f08c379a000000000000000000000000000000000000000000000000000000000815260040161215490613b28565b60405180910390fd5b505050565b6000808273ffffffffffffffffffffffffffffffffffffffff163b119050919050565b60018111156122a557600073ffffffffffffffffffffffffffffffffffffffff168473ffffffffffffffffffffffffffffffffffffffff16146122195780600460008673ffffffffffffffffffffffffffffffffffffffff1673ffffffffffffffffffffffffffffffffffffffff16815260200190815260200160002060008282546122119190613598565b925050819055505b600073ffffffffffffffffffffffffffffffffffffffff168373ffffffffffffffffffffffffffffffffffffffff16146122a45780600460008573ffffffffffffffffffffffffffffffffffffffff1673ffffffffffffffffffffffffffffffffffffffff168152602001908152602001600020600082825461229c9190613d29565b925050819055505b5b50505050565b600980549050600a600083815260200190815260200160002081905550600981908060018154018082558091505060019003906000526020600020016000909190919091505550565b6000600161230184610d8e565b61230b9190613598565b90506000600860008481526020019081526020016000205490508181146123f0576000600760008673ffffffffffffffffffffffffffffffffffffffff1673ffffffffffffffffffffffffffffffffffffffff168152602001908152602001600020600084815260200190815260200160002054905080600760008773ffffffffffffffffffffffffffffffffffffffff1673ffffffffffffffffffffffffffffffffffffffff168152602001908152602001600020600084815260200190815260200160002081905550816008600083815260200190815260200160002081905550505b6008600084815260200190815260200160002060009055600760008573ffffffffffffffffffffffffffffffffffffffff1673ffffffffffffffffffffffffffffffffffffffff16815260200190815260200160002060008381526020019081526020016000206000905550505050565b600060016009805490506124759190613598565b90506000600a60008481526020019081526020016000205490506000600983815481106124a5576124a4613168565b5b9060005260206000200154905080600983815481106124c7576124c6613168565b5b906000526020600020018190555081600a600083815260200190815260200160002081905550600a600085815260200190815260200160002060009055600980548061251657612515613d7f565b5b6001900381819060005260206000200160009055905550505050565b600061253d83610d8e565b905081600760008573ffffffffffffffffffffffffffffffffffffffff1673ffffffffffffffffffffffffffffffffffffffff168152602001908152602001600020600083815260200190815260200160002081905550806008600084815260200190815260200160002081905550505050565b600073ffffffffffffffffffffffffffffffffffffffff168273ffffffffffffffffffffffffffffffffffffffff1603612620576040517f08c379a000000000000000000000000000000000000000000000000000000000815260040161261790613dfa565b60405180910390fd5b61262981611bc5565b15612669576040517f08c379a000000000000000000000000000000000000000000000000000000000815260040161266090613e66565b60405180910390fd5b612677600083836001611c06565b61268081611bc5565b156126c0576040517f08c379a00000000000000000000000000000000000000000000000000000000081526004016126b790613e66565b60405180910390fd5b6001600460008473ffffffffffffffffffffffffffffffffffffffff1673ffffffffffffffffffffffffffffffffffffffff16815260200190815260200160002060008282540192505081905550816003600083815260200190815260200160002060006101000a81548173ffffffffffffffffffffffffffffffffffffffff021916908373ffffffffffffffffffffffffffffffffffffffff160217905550808273ffffffffffffffffffffffffffffffffffffffff16600073ffffffffffffffffffffffffffffffffffffffff167fddf252ad1be2c89b69c2b068fc378daa952ba7f163c4a11628f55a4df523b3ef60405160405180910390a46127ca600083836001611c87565b5050565b6040518060200160405280600060028111156127ed576127ec612ad4565b5b81525090565b6000604051905090565b600080fd5b600080fd5b60007fffffffff0000000000000000000000000000000000000000000000000000000082169050919050565b61283c81612807565b811461284757600080fd5b50565b60008135905061285981612833565b92915050565b600060208284031215612875576128746127fd565b5b60006128838482850161284a565b91505092915050565b60008115159050919050565b6128a18161288c565b82525050565b60006020820190506128bc6000830184612898565b92915050565b600081519050919050565b600082825260208201905092915050565b60005b838110156128fc5780820151818401526020810190506128e1565b8381111561290b576000848401525b50505050565b6000601f19601f8301169050919050565b600061292d826128c2565b61293781856128cd565b93506129478185602086016128de565b61295081612911565b840191505092915050565b600060208201905081810360008301526129758184612922565b905092915050565b6000819050919050565b6129908161297d565b811461299b57600080fd5b50565b6000813590506129ad81612987565b92915050565b6000602082840312156129c9576129c86127fd565b5b60006129d78482850161299e565b91505092915050565b600073ffffffffffffffffffffffffffffffffffffffff82169050919050565b6000612a0b826129e0565b9050919050565b612a1b81612a00565b82525050565b6000602082019050612a366000830184612a12565b92915050565b612a4581612a00565b8114612a5057600080fd5b50565b600081359050612a6281612a3c565b92915050565b60008060408385031215612a7f57612a7e6127fd565b5b6000612a8d85828601612a53565b9250506020612a9e8582860161299e565b9150509250929050565b600081519050919050565b600082825260208201905092915050565b6000819050602082019050919050565b7f4e487b7100000000000000000000000000000000000000000000000000000000600052602160045260246000fd5b60038110612b1457612b13612ad4565b5b50565b6000819050612b2582612b03565b919050565b6000612b3582612b17565b9050919050565b612b4581612b2a565b82525050565b602082016000820151612b616000850182612b3c565b50505050565b6000612b738383612b4b565b60208301905092915050565b6000602082019050919050565b6000612b9782612aa8565b612ba18185612ab3565b9350612bac83612ac4565b8060005b83811015612bdd578151612bc48882612b67565b9750612bcf83612b7f565b925050600181019050612bb0565b5085935050505092915050565b60006020820190508181036000830152612c048184612b8c565b905092915050565b612c158161297d565b82525050565b6000602082019050612c306000830184612c0c565b92915050565b600080600060608486031215612c4f57612c4e6127fd565b5b6000612c5d86828701612a53565b9350506020612c6e86828701612a53565b9250506040612c7f8682870161299e565b9150509250925092565b6000612c9482612a00565b9050919050565b612ca481612c89565b8114612caf57600080fd5b50565b600081359050612cc181612c9b565b92915050565b60038110612cd457600080fd5b50565b600081359050612ce681612cc7565b92915050565b60008060008060808587031215612d0657612d056127fd565b5b6000612d1487828801612cb2565b9450506020612d258782880161299e565b9350506040612d3687828801612cd7565b9250506060612d478782880161299e565b91505092959194509250565b600060208284031215612d6957612d686127fd565b5b6000612d7784828501612a53565b91505092915050565b612d898161288c565b8114612d9457600080fd5b50565b600081359050612da681612d80565b92915050565b60008060408385031215612dc357612dc26127fd565b5b6000612dd185828601612a53565b9250506020612de285828601612d97565b9150509250929050565b600080fd5b600080fd5b7f4e487b7100000000000000000000000000000000000000000000000000000000600052604160045260246000fd5b612e2e82612911565b810181811067ffffffffffffffff82111715612e4d57612e4c612df6565b5b80604052505050565b6000612e606127f3565b9050612e6c8282612e25565b919050565b600067ffffffffffffffff821115612e8c57612e8b612df6565b5b612e9582612911565b9050602081019050919050565b82818337600083830152505050565b6000612ec4612ebf84612e71565b612e56565b905082815260208101848484011115612ee057612edf612df1565b5b612eeb848285612ea2565b509392505050565b600082601f830112612f0857612f07612dec565b5b8135612f18848260208601612eb1565b91505092915050565b60008060008060808587031215612f3b57612f3a6127fd565b5b6000612f4987828801612a53565b9450506020612f5a87828801612a53565b9350506040612f6b8782880161299e565b925050606085013567ffffffffffffffff811115612f8c57612f8b612802565b5b612f9887828801612ef3565b91505092959194509250565b60008060408385031215612fbb57612fba6127fd565b5b6000612fc985828601612a53565b9250506020612fda85828601612a53565b9150509250929050565b7f4e487b7100000000000000000000000000000000000000000000000000000000600052602260045260246000fd5b6000600282049050600182168061302b57607f821691505b60208210810361303e5761303d612fe4565b5b50919050565b7f4552433732313a20617070726f76616c20746f2063757272656e74206f776e6560008201527f7200000000000000000000000000000000000000000000000000000000000000602082015250565b60006130a06021836128cd565b91506130ab82613044565b604082019050919050565b600060208201905081810360008301526130cf81613093565b9050919050565b7f4552433732313a20617070726f76652063616c6c6572206973206e6f7420746f60008201527f6b656e206f776e6572206f7220617070726f76656420666f7220616c6c000000602082015250565b6000613132603d836128cd565b915061313d826130d6565b604082019050919050565b6000602082019050818103600083015261316181613125565b9050919050565b7f4e487b7100000000000000000000000000000000000000000000000000000000600052603260045260246000fd5b7f4e487b7100000000000000000000000000000000000000000000000000000000600052601160045260246000fd5b60006131d18261297d565b91507fffffffffffffffffffffffffffffffffffffffffffffffffffffffffffffffff820361320357613202613197565b5b600182019050919050565b7f4552433732313a2063616c6c6572206973206e6f7420746f6b656e206f776e6560008201527f72206f7220617070726f76656400000000000000000000000000000000000000602082015250565b600061326a602d836128cd565b91506132758261320e565b604082019050919050565b600060208201905081810360008301526132998161325d565b9050919050565b7f455243373231456e756d657261626c653a206f776e657220696e646578206f7560008201527f74206f6620626f756e6473000000000000000000000000000000000000000000602082015250565b60006132fc602b836128cd565b9150613307826132a0565b604082019050919050565b6000602082019050818103600083015261332b816132ef565b9050919050565b7f53686f756c6420627579206174206c656173742031207469636b657400000000600082015250565b6000613368601c836128cd565b915061337382613332565b602082019050919050565b600060208201905081810360008301526133978161335b565b9050919050565b6000815190506133ad81612987565b92915050565b6000602082840312156133c9576133c86127fd565b5b60006133d78482850161339e565b91505092915050565b7f57726f6e672061736b656420726564756374696f6e0000000000000000000000600082015250565b60006134166015836128cd565b9150613421826133e0565b602082019050919050565b6000602082019050818103600083015261344581613409565b9050919050565b7f43616e277420627579206d6f7265207468616e203130207469636b657473206160008201527f7420612074696d65000000000000000000000000000000000000000000000000602082015250565b60006134a86028836128cd565b91506134b38261344c565b604082019050919050565b600060208201905081810360008301526134d78161349b565b9050919050565b60006134e98261297d565b91506134f48361297d565b9250817fffffffffffffffffffffffffffffffffffffffffffffffffffffffffffffffff048311821515161561352d5761352c613197565b5b828202905092915050565b7f4e487b7100000000000000000000000000000000000000000000000000000000600052601260045260246000fd5b60006135728261297d565b915061357d8361297d565b92508261358d5761358c613538565b5b828204905092915050565b60006135a38261297d565b91506135ae8361297d565b9250828210156135c1576135c0613197565b5b828203905092915050565b7f4e6f7420656e6f75677468206574680000000000000000000000000000000000600082015250565b6000613602600f836128cd565b915061360d826135cc565b602082019050919050565b60006020820190508181036000830152613631816135f5565b9050919050565b7f455243373231456e756d657261626c653a20676c6f62616c20696e646578206f60008201527f7574206f6620626f756e64730000000000000000000000000000000000000000602082015250565b6000613694602c836128cd565b915061369f82613638565b604082019050919050565b600060208201905081810360008301526136c381613687565b9050919050565b7f4552433732313a20696e76616c696420746f6b656e2049440000000000000000600082015250565b60006137006018836128cd565b915061370b826136ca565b602082019050919050565b6000602082019050818103600083015261372f816136f3565b9050919050565b7f4552433732313a2061646472657373207a65726f206973206e6f74206120766160008201527f6c6964206f776e65720000000000000000000000000000000000000000000000602082015250565b60006137926029836128cd565b915061379d82613736565b604082019050919050565b600060208201905081810360008301526137c181613785565b9050919050565b600081905092915050565b60006137de826128c2565b6137e881856137c8565b93506137f88185602086016128de565b80840191505092915050565b600061381082856137d3565b915061381c82846137d3565b91508190509392505050565b7f4f776e61626c653a206e6577206f776e657220697320746865207a65726f206160008201527f6464726573730000000000000000000000000000000000000000000000000000602082015250565b60006138846026836128cd565b915061388f82613828565b604082019050919050565b600060208201905081810360008301526138b381613877565b9050919050565b7f4552433732313a207472616e736665722066726f6d20696e636f72726563742060008201527f6f776e6572000000000000000000000000000000000000000000000000000000602082015250565b60006139166025836128cd565b9150613921826138ba565b604082019050919050565b6000602082019050818103600083015261394581613909565b9050919050565b7f4552433732313a207472616e7366657220746f20746865207a65726f2061646460008201527f7265737300000000000000000000000000000000000000000000000000000000602082015250565b60006139a86024836128cd565b91506139b38261394c565b604082019050919050565b600060208201905081810360008301526139d78161399b565b9050919050565b7f4f776e61626c653a2063616c6c6572206973206e6f7420746865206f776e6572600082015250565b6000613a146020836128cd565b9150613a1f826139de565b602082019050919050565b60006020820190508181036000830152613a4381613a07565b9050919050565b7f4552433732313a20617070726f766520746f2063616c6c657200000000000000600082015250565b6000613a806019836128cd565b9150613a8b82613a4a565b602082019050919050565b60006020820190508181036000830152613aaf81613a73565b9050919050565b7f4552433732313a207472616e7366657220746f206e6f6e20455243373231526560008201527f63656976657220696d706c656d656e7465720000000000000000000000000000602082015250565b6000613b126032836128cd565b9150613b1d82613ab6565b604082019050919050565b60006020820190508181036000830152613b4181613b05565b9050919050565b7f43616e6e6f74207472616e73666572207469636b657473000000000000000000600082015250565b6000613b7e6017836128cd565b9150613b8982613b48565b602082019050919050565b60006020820190508181036000830152613bad81613b71565b9050919050565b600081519050919050565b600082825260208201905092915050565b6000613bdb82613bb4565b613be58185613bbf565b9350613bf58185602086016128de565b613bfe81612911565b840191505092915050565b6000608082019050613c1e6000830187612a12565b613c2b6020830186612a12565b613c386040830185612c0c565b8181036060830152613c4a8184613bd0565b905095945050505050565b600081519050613c6481612833565b92915050565b600060208284031215613c8057613c7f6127fd565b5b6000613c8e84828501613c55565b91505092915050565b7f455243373231456e756d657261626c653a20636f6e736563757469766520747260008201527f616e7366657273206e6f7420737570706f727465640000000000000000000000602082015250565b6000613cf36035836128cd565b9150613cfe82613c97565b604082019050919050565b60006020820190508181036000830152613d2281613ce6565b9050919050565b6000613d348261297d565b9150613d3f8361297d565b9250827fffffffffffffffffffffffffffffffffffffffffffffffffffffffffffffffff03821115613d7457613d73613197565b5b828201905092915050565b7f4e487b7100000000000000000000000000000000000000000000000000000000600052603160045260246000fd5b7f4552433732313a206d696e7420746f20746865207a65726f2061646472657373600082015250565b6000613de46020836128cd565b9150613def82613dae565b602082019050919050565b60006020820190508181036000830152613e1381613dd7565b9050919050565b7f4552433732313a20746f6b656e20616c7265616479206d696e74656400000000600082015250565b6000613e50601c836128cd565b9150613e5b82613e1a565b602082019050919050565b60006020820190508181036000830152613e7f81613e43565b905091905056fea2646970667358221220d14905ff09eb7bf00d4c873496641fbf310f9ac3242b4b6ec3e2e3f0c8b0723264736f6c634300080d0033",
  "immutableReferences": {},
  "source": "// SPDX-License-Identifier: MIT\n// Tells the Solidity compiler to compile only from v0.8.13 to v0.9.0\npragma solidity ^0.8.13;\n\nimport \"@openzeppelin/contracts/utils/Counters.sol\";\nimport \"@openzeppelin/contracts/access/Ownable.sol\";\nimport \"@openzeppelin/contracts/token/ERC721/extensions/ERC721Enumerable.sol\";\nimport \"@openzeppelin/contracts/utils/math/SafeMath.sol\";\nimport \"./RailRoadCard.sol\";\n\ncontract RailRoadTicket is Ownable, ERC721Enumerable{\n    using SafeMath for uint256;\n\tusing Counters for Counters.Counter;\n\tenum TICKET_TYPE {\n\t\tTRAIN,\n\t\tBUS,\n\t\tSUBWAY\n\t}\n\tstruct Ticket {\n\t\tTICKET_TYPE ticketType;\n\t}\n\tCounters.Counter private _nextTokenId;\n\tuint public constant TICKET_PRICE = 0.069 ether;\n\tuint public constant MAX_TICKET_BUY_PER_TRANSAC = 10;\n\tmapping (uint256 => Ticket) private tickets;\n\n\tconstructor() ERC721(\"RailRoadTicket\",\"SRRT\") {\n\t}\n\n\tfunction _mintNft(TICKET_TYPE ticketType) private {\n\t\tuint tokenId = _nextTokenId.current();\n\t\t_nextTokenId.increment();\n\t\ttickets[tokenId] = Ticket (ticketType);\n\t\t_safeMint(msg.sender,tokenId);\n\t}\n\n\tfunction buyTickets(RailRoadCard railRoadCardInstance,uint count,TICKET_TYPE ticketType,uint askedReduction) payable public {\n\t\trequire( count > 0, \"Should buy at least 1 ticket\");\n\t\trequire(railRoadCardInstance.getReduction(msg.sender) == askedReduction, \"Wrong asked reduction\");\n\t\trequire(count <= MAX_TICKET_BUY_PER_TRANSAC, \"Can't buy more than 10 tickets at a time\" );\n\t\tuint totalPrice = TICKET_PRICE.mul(count) ;\n\t\tuint reductionAmount = totalPrice * askedReduction / 100; // Calcul de la rduction en pourcentage du prix total\n\t\tuint finalPrice = totalPrice - reductionAmount; // Calcul du prix final en soustractant \n\t\trequire(msg.value >= finalPrice, \"Not enougth eth\");\n        for (uint i = 0; i < count; i++) {\n          _mintNft(ticketType);\n        }\n\t\tpayable(owner()).transfer(msg.value);\n\t}\n\n\t function _beforeTokenTransfer(\n        address from,\n        address to,\n        uint256 tokenId,\n\t\tuint256 batchSize\n    ) internal override virtual {\n\t\t// allow only mint transfer\n        require(from == address(0), \"Cannot transfer tickets\");\n\t\tsuper._beforeTokenTransfer(from,to,tokenId,batchSize);\n    }\n\n\tfunction getOwnedTickets() view public returns(Ticket[] memory) {\n\t\taddress owner = msg.sender;\n\t\tuint ownedTokenIds = ERC721.balanceOf(owner);\n\t\tTicket[] memory ownedTickets = new Ticket[](ownedTokenIds); \n\t\tfor (uint i =0; i< ownedTokenIds; i++){\n\t\t\tuint256 ownedTokenId = tokenOfOwnerByIndex(owner,i);\n\t\t\tTicket memory ownedTicket = tickets[ownedTokenId];\n\t\t\townedTickets[i] = ownedTicket;\n\t\t}\n\t\treturn ownedTickets;\n\t}\n}\n",
  "sourcePath": "C:\\Users\\Quentin\\Desktop\\RailRoadContract\\contracts\\RailRoadTicket.sol",
  "compiler": {
    "name": "solc",
    "version": "0.8.13+commit.abaa5c0e.Emscripten.clang"
  },
  "schemaVersion": "3.4.11",
  "updatedAt": "2022-12-13T17:01:51.516Z",
  "networkType": "ethereum",
  "devdoc": {
    "kind": "dev",
    "methods": {
      "approve(address,uint256)": {
        "details": "See {IERC721-approve}."
      },
      "balanceOf(address)": {
        "details": "See {IERC721-balanceOf}."
      },
      "getApproved(uint256)": {
        "details": "See {IERC721-getApproved}."
      },
      "isApprovedForAll(address,address)": {
        "details": "See {IERC721-isApprovedForAll}."
      },
      "name()": {
        "details": "See {IERC721Metadata-name}."
      },
      "owner()": {
        "details": "Returns the address of the current owner."
      },
      "ownerOf(uint256)": {
        "details": "See {IERC721-ownerOf}."
      },
      "renounceOwnership()": {
        "details": "Leaves the contract without owner. It will not be possible to call `onlyOwner` functions anymore. Can only be called by the current owner. NOTE: Renouncing ownership will leave the contract without an owner, thereby removing any functionality that is only available to the owner."
      },
      "safeTransferFrom(address,address,uint256)": {
        "details": "See {IERC721-safeTransferFrom}."
      },
      "safeTransferFrom(address,address,uint256,bytes)": {
        "details": "See {IERC721-safeTransferFrom}."
      },
      "setApprovalForAll(address,bool)": {
        "details": "See {IERC721-setApprovalForAll}."
      },
      "supportsInterface(bytes4)": {
        "details": "See {IERC165-supportsInterface}."
      },
      "symbol()": {
        "details": "See {IERC721Metadata-symbol}."
      },
      "tokenByIndex(uint256)": {
        "details": "See {IERC721Enumerable-tokenByIndex}."
      },
      "tokenOfOwnerByIndex(address,uint256)": {
        "details": "See {IERC721Enumerable-tokenOfOwnerByIndex}."
      },
      "tokenURI(uint256)": {
        "details": "See {IERC721Metadata-tokenURI}."
      },
      "totalSupply()": {
        "details": "See {IERC721Enumerable-totalSupply}."
      },
      "transferFrom(address,address,uint256)": {
        "details": "See {IERC721-transferFrom}."
      },
      "transferOwnership(address)": {
        "details": "Transfers ownership of the contract to a new account (`newOwner`). Can only be called by the current owner."
      }
    },
    "version": 1
  },
  "userdoc": {
    "kind": "user",
    "methods": {},
    "version": 1
  }
}