{
  "contractName": "RailRoadCard",
  "abi": [
    {
      "inputs": [],
      "stateMutability": "nonpayable",
      "type": "constructor"
    },
    {
      "anonymous": false,
      "inputs": [
        {
          "indexed": true,
          "internalType": "address",
          "name": "owner",
          "type": "address"
        },
        {
          "indexed": true,
          "internalType": "address",
          "name": "approved",
          "type": "address"
        },
        {
          "indexed": true,
          "internalType": "uint256",
          "name": "tokenId",
          "type": "uint256"
        }
      ],
      "name": "Approval",
      "type": "event"
    },
    {
      "anonymous": false,
      "inputs": [
        {
          "indexed": true,
          "internalType": "address",
          "name": "owner",
          "type": "address"
        },
        {
          "indexed": true,
          "internalType": "address",
          "name": "operator",
          "type": "address"
        },
        {
          "indexed": false,
          "internalType": "bool",
          "name": "approved",
          "type": "bool"
        }
      ],
      "name": "ApprovalForAll",
      "type": "event"
    },
    {
      "anonymous": false,
      "inputs": [
        {
          "indexed": true,
          "internalType": "address",
          "name": "previousOwner",
          "type": "address"
        },
        {
          "indexed": true,
          "internalType": "address",
          "name": "newOwner",
          "type": "address"
        }
      ],
      "name": "OwnershipTransferred",
      "type": "event"
    },
    {
      "anonymous": false,
      "inputs": [
        {
          "indexed": true,
          "internalType": "address",
          "name": "from",
          "type": "address"
        },
        {
          "indexed": true,
          "internalType": "address",
          "name": "to",
          "type": "address"
        },
        {
          "indexed": true,
          "internalType": "uint256",
          "name": "tokenId",
          "type": "uint256"
        }
      ],
      "name": "Transfer",
      "type": "event"
    },
    {
      "inputs": [
        {
          "internalType": "address",
          "name": "to",
          "type": "address"
        },
        {
          "internalType": "uint256",
          "name": "tokenId",
          "type": "uint256"
        }
      ],
      "name": "approve",
      "outputs": [],
      "stateMutability": "nonpayable",
      "type": "function"
    },
    {
      "inputs": [
        {
          "internalType": "address",
          "name": "owner",
          "type": "address"
        }
      ],
      "name": "balanceOf",
      "outputs": [
        {
          "internalType": "uint256",
          "name": "",
          "type": "uint256"
        }
      ],
      "stateMutability": "view",
      "type": "function",
      "constant": true
    },
    {
      "inputs": [
        {
          "internalType": "uint256",
          "name": "tokenId",
          "type": "uint256"
        }
      ],
      "name": "getApproved",
      "outputs": [
        {
          "internalType": "address",
          "name": "",
          "type": "address"
        }
      ],
      "stateMutability": "view",
      "type": "function",
      "constant": true
    },
    {
      "inputs": [
        {
          "internalType": "address",
          "name": "owner",
          "type": "address"
        },
        {
          "internalType": "address",
          "name": "operator",
          "type": "address"
        }
      ],
      "name": "isApprovedForAll",
      "outputs": [
        {
          "internalType": "bool",
          "name": "",
          "type": "bool"
        }
      ],
      "stateMutability": "view",
      "type": "function",
      "constant": true
    },
    {
      "inputs": [],
      "name": "name",
      "outputs": [
        {
          "internalType": "string",
          "name": "",
          "type": "string"
        }
      ],
      "stateMutability": "view",
      "type": "function",
      "constant": true
    },
    {
      "inputs": [],
      "name": "owner",
      "outputs": [
        {
          "internalType": "address",
          "name": "",
          "type": "address"
        }
      ],
      "stateMutability": "view",
      "type": "function",
      "constant": true
    },
    {
      "inputs": [
        {
          "internalType": "uint256",
          "name": "tokenId",
          "type": "uint256"
        }
      ],
      "name": "ownerOf",
      "outputs": [
        {
          "internalType": "address",
          "name": "",
          "type": "address"
        }
      ],
      "stateMutability": "view",
      "type": "function",
      "constant": true
    },
    {
      "inputs": [],
      "name": "renounceOwnership",
      "outputs": [],
      "stateMutability": "nonpayable",
      "type": "function"
    },
    {
      "inputs": [],
      "name": "royalities",
      "outputs": [
        {
          "internalType": "uint256",
          "name": "",
          "type": "uint256"
        }
      ],
      "stateMutability": "view",
      "type": "function",
      "constant": true
    },
    {
      "inputs": [
        {
          "internalType": "address",
          "name": "from",
          "type": "address"
        },
        {
          "internalType": "address",
          "name": "to",
          "type": "address"
        },
        {
          "internalType": "uint256",
          "name": "tokenId",
          "type": "uint256"
        }
      ],
      "name": "safeTransferFrom",
      "outputs": [],
      "stateMutability": "nonpayable",
      "type": "function"
    },
    {
      "inputs": [
        {
          "internalType": "address",
          "name": "from",
          "type": "address"
        },
        {
          "internalType": "address",
          "name": "to",
          "type": "address"
        },
        {
          "internalType": "uint256",
          "name": "tokenId",
          "type": "uint256"
        },
        {
          "internalType": "bytes",
          "name": "data",
          "type": "bytes"
        }
      ],
      "name": "safeTransferFrom",
      "outputs": [],
      "stateMutability": "nonpayable",
      "type": "function"
    },
    {
      "inputs": [
        {
          "internalType": "address",
          "name": "operator",
          "type": "address"
        },
        {
          "internalType": "bool",
          "name": "approved",
          "type": "bool"
        }
      ],
      "name": "setApprovalForAll",
      "outputs": [],
      "stateMutability": "nonpayable",
      "type": "function"
    },
    {
      "inputs": [
        {
          "internalType": "bytes4",
          "name": "interfaceId",
          "type": "bytes4"
        }
      ],
      "name": "supportsInterface",
      "outputs": [
        {
          "internalType": "bool",
          "name": "",
          "type": "bool"
        }
      ],
      "stateMutability": "view",
      "type": "function",
      "constant": true
    },
    {
      "inputs": [],
      "name": "symbol",
      "outputs": [
        {
          "internalType": "string",
          "name": "",
          "type": "string"
        }
      ],
      "stateMutability": "view",
      "type": "function",
      "constant": true
    },
    {
      "inputs": [
        {
          "internalType": "uint256",
          "name": "index",
          "type": "uint256"
        }
      ],
      "name": "tokenByIndex",
      "outputs": [
        {
          "internalType": "uint256",
          "name": "",
          "type": "uint256"
        }
      ],
      "stateMutability": "view",
      "type": "function",
      "constant": true
    },
    {
      "inputs": [
        {
          "internalType": "address",
          "name": "owner",
          "type": "address"
        },
        {
          "internalType": "uint256",
          "name": "index",
          "type": "uint256"
        }
      ],
      "name": "tokenOfOwnerByIndex",
      "outputs": [
        {
          "internalType": "uint256",
          "name": "",
          "type": "uint256"
        }
      ],
      "stateMutability": "view",
      "type": "function",
      "constant": true
    },
    {
      "inputs": [
        {
          "internalType": "uint256",
          "name": "tokenId",
          "type": "uint256"
        }
      ],
      "name": "tokenURI",
      "outputs": [
        {
          "internalType": "string",
          "name": "",
          "type": "string"
        }
      ],
      "stateMutability": "view",
      "type": "function",
      "constant": true
    },
    {
      "inputs": [],
      "name": "totalSupply",
      "outputs": [
        {
          "internalType": "uint256",
          "name": "",
          "type": "uint256"
        }
      ],
      "stateMutability": "view",
      "type": "function",
      "constant": true
    },
    {
      "inputs": [
        {
          "internalType": "address",
          "name": "from",
          "type": "address"
        },
        {
          "internalType": "address",
          "name": "to",
          "type": "address"
        },
        {
          "internalType": "uint256",
          "name": "tokenId",
          "type": "uint256"
        }
      ],
      "name": "transferFrom",
      "outputs": [],
      "stateMutability": "nonpayable",
      "type": "function"
    },
    {
      "inputs": [
        {
          "internalType": "address",
          "name": "newOwner",
          "type": "address"
        }
      ],
      "name": "transferOwnership",
      "outputs": [],
      "stateMutability": "nonpayable",
      "type": "function"
    },
    {
      "inputs": [
        {
          "internalType": "uint256",
          "name": "collectionId",
          "type": "uint256"
        },
        {
          "internalType": "uint256[]",
          "name": "cardIds",
          "type": "uint256[]"
        },
        {
          "internalType": "uint256",
          "name": "price",
          "type": "uint256"
        }
      ],
      "name": "putCardsInSell",
      "outputs": [],
      "stateMutability": "payable",
      "type": "function",
      "payable": true
    },
    {
      "inputs": [
        {
          "internalType": "address",
          "name": "",
          "type": "address"
        },
        {
          "internalType": "address",
          "name": "",
          "type": "address"
        },
        {
          "internalType": "uint256",
          "name": "",
          "type": "uint256"
        },
        {
          "internalType": "bytes",
          "name": "",
          "type": "bytes"
        }
      ],
      "name": "onERC721Received",
      "outputs": [
        {
          "internalType": "bytes4",
          "name": "",
          "type": "bytes4"
        }
      ],
      "stateMutability": "pure",
      "type": "function",
      "constant": true
    },
    {
      "inputs": [],
      "name": "getActiveSaleBundle",
      "outputs": [
        {
          "components": [
            {
              "internalType": "uint256",
              "name": "saleBundleId",
              "type": "uint256"
            },
            {
              "internalType": "uint256",
              "name": "collectionId",
              "type": "uint256"
            },
            {
              "internalType": "uint256[]",
              "name": "cardIds",
              "type": "uint256[]"
            },
            {
              "internalType": "uint256",
              "name": "price",
              "type": "uint256"
            },
            {
              "internalType": "address",
              "name": "owner",
              "type": "address"
            },
            {
              "internalType": "bool",
              "name": "active",
              "type": "bool"
            },
            {
              "internalType": "uint256",
              "name": "soldedCards",
              "type": "uint256"
            }
          ],
          "internalType": "struct RailRoadCard.SaleBundle[]",
          "name": "",
          "type": "tuple[]"
        }
      ],
      "stateMutability": "view",
      "type": "function",
      "constant": true
    },
    {
      "inputs": [
        {
          "internalType": "uint256",
          "name": "collectionId",
          "type": "uint256"
        }
      ],
      "name": "getCollection",
      "outputs": [
        {
          "components": [
            {
              "internalType": "string",
              "name": "name",
              "type": "string"
            },
            {
              "internalType": "string",
              "name": "description",
              "type": "string"
            },
            {
              "internalType": "string",
              "name": "imageUrl",
              "type": "string"
            },
            {
              "internalType": "uint256",
              "name": "reduction",
              "type": "uint256"
            },
            {
              "internalType": "uint256",
              "name": "amount",
              "type": "uint256"
            }
          ],
          "internalType": "struct RailRoadCard.Collection",
          "name": "",
          "type": "tuple"
        }
      ],
      "stateMutability": "view",
      "type": "function",
      "constant": true
    },
    {
      "inputs": [],
      "name": "getReduction",
      "outputs": [
        {
          "internalType": "uint256",
          "name": "",
          "type": "uint256"
        }
      ],
      "stateMutability": "view",
      "type": "function",
      "constant": true
    },
    {
      "inputs": [
        {
          "internalType": "address",
          "name": "owner",
          "type": "address"
        }
      ],
      "name": "getReduction",
      "outputs": [
        {
          "internalType": "uint256",
          "name": "",
          "type": "uint256"
        }
      ],
      "stateMutability": "view",
      "type": "function",
      "constant": true
    },
    {
      "inputs": [
        {
          "components": [
            {
              "internalType": "string",
              "name": "name",
              "type": "string"
            },
            {
              "internalType": "string",
              "name": "description",
              "type": "string"
            },
            {
              "internalType": "string",
              "name": "imageUrl",
              "type": "string"
            },
            {
              "internalType": "uint256",
              "name": "reduction",
              "type": "uint256"
            },
            {
              "internalType": "uint256",
              "name": "amount",
              "type": "uint256"
            }
          ],
          "internalType": "struct RailRoadCard.Collection",
          "name": "collection",
          "type": "tuple"
        },
        {
          "internalType": "uint256",
          "name": "price",
          "type": "uint256"
        }
      ],
      "name": "createCollection",
      "outputs": [],
      "stateMutability": "nonpayable",
      "type": "function"
    },
    {
      "inputs": [
        {
          "internalType": "uint256[]",
          "name": "cardIds",
          "type": "uint256[]"
        },
        {
          "internalType": "address",
          "name": "to",
          "type": "address"
        }
      ],
      "name": "sendCards",
      "outputs": [],
      "stateMutability": "payable",
      "type": "function",
      "payable": true
    },
    {
      "inputs": [
        {
          "internalType": "uint256",
          "name": "saleBundleId",
          "type": "uint256"
        },
        {
          "internalType": "uint256",
          "name": "count",
          "type": "uint256"
        }
      ],
      "name": "buyCards",
      "outputs": [],
      "stateMutability": "payable",
      "type": "function",
      "payable": true
    },
    {
      "inputs": [],
      "name": "getOwnedCards",
      "outputs": [
        {
          "components": [
            {
              "internalType": "uint256",
              "name": "collectionId",
              "type": "uint256"
            },
            {
              "internalType": "uint256",
              "name": "tokenId",
              "type": "uint256"
            }
          ],
          "internalType": "struct RailRoadCard.Card[]",
          "name": "",
          "type": "tuple[]"
        }
      ],
      "stateMutability": "view",
      "type": "function",
      "constant": true
    }
  ],
  "bytecode": "0x60806040523480156200001157600080fd5b506040518060400160405280600f81526020017f5375705261696c526f61644361726400000000000000000000000000000000008152506040518060400160405280600481526020017f53525243000000000000000000000000000000000000000000000000000000008152506200009e62000092620001bf60201b60201c565b620001c760201b60201c565b8160019080519060200190620000b692919062001341565b508060029080519060200190620000cf92919062001341565b50505060006040518060a001604052806040518060400160405280600b81526020017f444f4e206564756172646f00000000000000000000000000000000000000000081525081526020016040518060400160405280601481526020017f70657465206d6f69206c652063756c206c616c6f00000000000000000000000081525081526020016040518060400160405280601f81526020017f68747470733a2f2f692e696d6775722e636f6d2f664c33587134592e6a7067008152508152602001605a815260200160058152509050620001b881678ac7230489e800006200028b60201b60201c565b5062001bd5565b600033905090565b60008060009054906101000a900473ffffffffffffffffffffffffffffffffffffffff169050816000806101000a81548173ffffffffffffffffffffffffffffffffffffffff021916908373ffffffffffffffffffffffffffffffffffffffff1602179055508173ffffffffffffffffffffffffffffffffffffffff168173ffffffffffffffffffffffffffffffffffffffff167f8be0079c531659141344cd1fd0a4f28419497f9722a3daafe3b4186f6b6457e060405160405180910390a35050565b6200029b6200047f60201b60201c565b606482606001511115620002e6576040517f08c379a0000000000000000000000000000000000000000000000000000000008152600401620002dd90620014a4565b60405180910390fd5b6000620002ff600c6200051060201b62001d941760201c565b905062000318600c6200051e60201b62001da21760201c565b82600f600083815260200190815260200160002060008201518160000190805190602001906200034a92919062001341565b5060208201518160010190805190602001906200036992919062001341565b5060408201518160020190805190602001906200038892919062001341565b5060608201518160030155608082015181600401559050506000836080015167ffffffffffffffff811115620003c357620003c2620014c6565b5b604051908082528060200260200182016040528015620003f25781602001602082028036833780820191505090505b50905060005b846080015181101562000465576200041c600b6200051060201b62001d941760201c565b828281518110620004325762000431620014f5565b5b6020026020010181815250506200044f836200053460201b60201c565b80806200045c906200155d565b915050620003f8565b5062000479828285620005cb60201b60201c565b50505050565b6200048f620001bf60201b60201c565b73ffffffffffffffffffffffffffffffffffffffff16620004b56200073d60201b60201c565b73ffffffffffffffffffffffffffffffffffffffff16146200050e576040517f08c379a00000000000000000000000000000000000000000000000000000000081526004016200050590620015fa565b60405180910390fd5b565b600081600001549050919050565b6001816000016000828254019250508190555050565b620005446200047f60201b60201c565b60006200055d600b6200051060201b62001d941760201c565b905062000576600b6200051e60201b62001da21760201c565b604051806040016040528083815260200182815250600e60008381526020019081526020016000206000820151816000015560208201518160010155905050620005c730826200076660201b60201c565b5050565b6000620005e4600d6200051060201b62001d941760201c565b9050620005fd600d6200051e60201b62001da21760201c565b6040518060e001604052808281526020018581526020018481526020018381526020013373ffffffffffffffffffffffffffffffffffffffff168152602001600115158152602001600081525060106000838152602001908152602001600020600082015181600001556020820151816001015560408201518160020190805190602001906200068f929190620013d2565b506060820151816003015560808201518160040160006101000a81548173ffffffffffffffffffffffffffffffffffffffff021916908373ffffffffffffffffffffffffffffffffffffffff16021790555060a08201518160040160146101000a81548160ff02191690831515021790555060c08201518160050155905050601181908060018154018082558091505060019003906000526020600020016000909190919091505550505050565b60008060009054906101000a900473ffffffffffffffffffffffffffffffffffffffff16905090565b620007888282604051806020016040528060008152506200078c60201b60201c565b5050565b6200079e8383620007fa60201b60201c565b620007b3600084848462000a4060201b60201c565b620007f5576040517f08c379a0000000000000000000000000000000000000000000000000000000008152600401620007ec9062001692565b60405180910390fd5b505050565b600073ffffffffffffffffffffffffffffffffffffffff168273ffffffffffffffffffffffffffffffffffffffff16036200086c576040517f08c379a0000000000000000000000000000000000000000000000000000000008152600401620008639062001704565b60405180910390fd5b6200087d8162000be960201b60201c565b15620008c0576040517f08c379a0000000000000000000000000000000000000000000000000000000008152600401620008b79062001776565b60405180910390fd5b620008d660008383600162000c3260201b60201c565b620008e78162000be960201b60201c565b156200092a576040517f08c379a0000000000000000000000000000000000000000000000000000000008152600401620009219062001776565b60405180910390fd5b6001600460008473ffffffffffffffffffffffffffffffffffffffff1673ffffffffffffffffffffffffffffffffffffffff16815260200190815260200160002060008282540192505081905550816003600083815260200190815260200160002060006101000a81548173ffffffffffffffffffffffffffffffffffffffff021916908373ffffffffffffffffffffffffffffffffffffffff160217905550808273ffffffffffffffffffffffffffffffffffffffff16600073ffffffffffffffffffffffffffffffffffffffff167fddf252ad1be2c89b69c2b068fc378daa952ba7f163c4a11628f55a4df523b3ef60405160405180910390a462000a3c60008383600162000dc660201b60201c565b5050565b600062000a6e8473ffffffffffffffffffffffffffffffffffffffff1662000dcc60201b62001db81760201c565b1562000bdc578373ffffffffffffffffffffffffffffffffffffffff1663150b7a0262000aa0620001bf60201b60201c565b8786866040518563ffffffff1660e01b815260040162000ac4949392919062001892565b6020604051808303816000875af192505050801562000b0357506040513d601f19601f8201168201806040525081019062000b00919062001948565b60015b62000b8b573d806000811462000b36576040519150601f19603f3d011682016040523d82523d6000602084013e62000b3b565b606091505b50600081510362000b83576040517f08c379a000000000000000000000000000000000000000000000000000000000815260040162000b7a9062001692565b60405180910390fd5b805181602001fd5b63150b7a0260e01b7bffffffffffffffffffffffffffffffffffffffffffffffffffffffff1916817bffffffffffffffffffffffffffffffffffffffffffffffffffffffff19161491505062000be1565b600190505b949350505050565b60008073ffffffffffffffffffffffffffffffffffffffff1662000c138362000def60201b60201c565b73ffffffffffffffffffffffffffffffffffffffff1614159050919050565b62000c4b8484848462000e2c60201b62001ddb1760201c565b600181111562000c92576040517f08c379a000000000000000000000000000000000000000000000000000000000815260040162000c8990620019f0565b60405180910390fd5b6000829050600073ffffffffffffffffffffffffffffffffffffffff168573ffffffffffffffffffffffffffffffffffffffff160362000ce35762000cdd8162000f5960201b60201c565b62000d2b565b8373ffffffffffffffffffffffffffffffffffffffff168573ffffffffffffffffffffffffffffffffffffffff161462000d2a5762000d29858262000fa260201b60201c565b5b5b600073ffffffffffffffffffffffffffffffffffffffff168473ffffffffffffffffffffffffffffffffffffffff160362000d775762000d71816200111f60201b60201c565b62000dbf565b8473ffffffffffffffffffffffffffffffffffffffff168473ffffffffffffffffffffffffffffffffffffffff161462000dbe5762000dbd8482620011fb60201b60201c565b5b5b5050505050565b50505050565b6000808273ffffffffffffffffffffffffffffffffffffffff163b119050919050565b60006003600083815260200190815260200160002060009054906101000a900473ffffffffffffffffffffffffffffffffffffffff169050919050565b600181111562000f5357600073ffffffffffffffffffffffffffffffffffffffff168473ffffffffffffffffffffffffffffffffffffffff161462000ec45780600460008673ffffffffffffffffffffffffffffffffffffffff1673ffffffffffffffffffffffffffffffffffffffff168152602001908152602001600020600082825462000ebc919062001a12565b925050819055505b600073ffffffffffffffffffffffffffffffffffffffff168373ffffffffffffffffffffffffffffffffffffffff161462000f525780600460008573ffffffffffffffffffffffffffffffffffffffff1673ffffffffffffffffffffffffffffffffffffffff168152602001908152602001600020600082825462000f4a919062001a4d565b925050819055505b5b50505050565b600980549050600a600083815260200190815260200160002081905550600981908060018154018082558091505060019003906000526020600020016000909190919091505550565b6000600162000fbc846200128760201b620010731760201c565b62000fc8919062001a12565b9050600060086000848152602001908152602001600020549050818114620010ae576000600760008673ffffffffffffffffffffffffffffffffffffffff1673ffffffffffffffffffffffffffffffffffffffff168152602001908152602001600020600084815260200190815260200160002054905080600760008773ffffffffffffffffffffffffffffffffffffffff1673ffffffffffffffffffffffffffffffffffffffff168152602001908152602001600020600084815260200190815260200160002081905550816008600083815260200190815260200160002081905550505b6008600084815260200190815260200160002060009055600760008573ffffffffffffffffffffffffffffffffffffffff1673ffffffffffffffffffffffffffffffffffffffff16815260200190815260200160002060008381526020019081526020016000206000905550505050565b6000600160098054905062001135919062001a12565b90506000600a6000848152602001908152602001600020549050600060098381548110620011685762001167620014f5565b5b9060005260206000200154905080600983815481106200118d576200118c620014f5565b5b906000526020600020018190555081600a600083815260200190815260200160002081905550600a6000858152602001908152602001600020600090556009805480620011df57620011de62001aaa565b5b6001900381819060005260206000200160009055905550505050565b600062001213836200128760201b620010731760201c565b905081600760008573ffffffffffffffffffffffffffffffffffffffff1673ffffffffffffffffffffffffffffffffffffffff168152602001908152602001600020600083815260200190815260200160002081905550806008600084815260200190815260200160002081905550505050565b60008073ffffffffffffffffffffffffffffffffffffffff168273ffffffffffffffffffffffffffffffffffffffff1603620012fa576040517f08c379a0000000000000000000000000000000000000000000000000000000008152600401620012f19062001b4f565b60405180910390fd5b600460008373ffffffffffffffffffffffffffffffffffffffff1673ffffffffffffffffffffffffffffffffffffffff168152602001908152602001600020549050919050565b8280546200134f9062001ba0565b90600052602060002090601f016020900481019282620013735760008555620013bf565b82601f106200138e57805160ff1916838001178555620013bf565b82800160010185558215620013bf579182015b82811115620013be578251825591602001919060010190620013a1565b5b509050620013ce919062001424565b5090565b82805482825590600052602060002090810192821562001411579160200282015b8281111562001410578251825591602001919060010190620013f3565b5b50905062001420919062001424565b5090565b5b808211156200143f57600081600090555060010162001425565b5090565b600082825260208201905092915050565b7f596f752063616e277420736574206120726564756374696f6e203e2031303000600082015250565b60006200148c601f8362001443565b9150620014998262001454565b602082019050919050565b60006020820190508181036000830152620014bf816200147d565b9050919050565b7f4e487b7100000000000000000000000000000000000000000000000000000000600052604160045260246000fd5b7f4e487b7100000000000000000000000000000000000000000000000000000000600052603260045260246000fd5b7f4e487b7100000000000000000000000000000000000000000000000000000000600052601160045260246000fd5b6000819050919050565b60006200156a8262001553565b91507fffffffffffffffffffffffffffffffffffffffffffffffffffffffffffffffff82036200159f576200159e62001524565b5b600182019050919050565b7f4f776e61626c653a2063616c6c6572206973206e6f7420746865206f776e6572600082015250565b6000620015e260208362001443565b9150620015ef82620015aa565b602082019050919050565b600060208201905081810360008301526200161581620015d3565b9050919050565b7f4552433732313a207472616e7366657220746f206e6f6e20455243373231526560008201527f63656976657220696d706c656d656e7465720000000000000000000000000000602082015250565b60006200167a60328362001443565b915062001687826200161c565b604082019050919050565b60006020820190508181036000830152620016ad816200166b565b9050919050565b7f4552433732313a206d696e7420746f20746865207a65726f2061646472657373600082015250565b6000620016ec60208362001443565b9150620016f982620016b4565b602082019050919050565b600060208201905081810360008301526200171f81620016dd565b9050919050565b7f4552433732313a20746f6b656e20616c7265616479206d696e74656400000000600082015250565b60006200175e601c8362001443565b91506200176b8262001726565b602082019050919050565b6000602082019050818103600083015262001791816200174f565b9050919050565b600073ffffffffffffffffffffffffffffffffffffffff82169050919050565b6000620017c58262001798565b9050919050565b620017d781620017b8565b82525050565b620017e88162001553565b82525050565b600081519050919050565b600082825260208201905092915050565b60005b838110156200182a5780820151818401526020810190506200180d565b838111156200183a576000848401525b50505050565b6000601f19601f8301169050919050565b60006200185e82620017ee565b6200186a8185620017f9565b93506200187c8185602086016200180a565b620018878162001840565b840191505092915050565b6000608082019050620018a96000830187620017cc565b620018b86020830186620017cc565b620018c76040830185620017dd565b8181036060830152620018db818462001851565b905095945050505050565b600080fd5b60007fffffffff0000000000000000000000000000000000000000000000000000000082169050919050565b6200192281620018eb565b81146200192e57600080fd5b50565b600081519050620019428162001917565b92915050565b600060208284031215620019615762001960620018e6565b5b6000620019718482850162001931565b91505092915050565b7f455243373231456e756d657261626c653a20636f6e736563757469766520747260008201527f616e7366657273206e6f7420737570706f727465640000000000000000000000602082015250565b6000620019d860358362001443565b9150620019e5826200197a565b604082019050919050565b6000602082019050818103600083015262001a0b81620019c9565b9050919050565b600062001a1f8262001553565b915062001a2c8362001553565b92508282101562001a425762001a4162001524565b5b828203905092915050565b600062001a5a8262001553565b915062001a678362001553565b9250827fffffffffffffffffffffffffffffffffffffffffffffffffffffffffffffffff0382111562001a9f5762001a9e62001524565b5b828201905092915050565b7f4e487b7100000000000000000000000000000000000000000000000000000000600052603160045260246000fd5b7f4552433732313a2061646472657373207a65726f206973206e6f74206120766160008201527f6c6964206f776e65720000000000000000000000000000000000000000000000602082015250565b600062001b3760298362001443565b915062001b448262001ad9565b604082019050919050565b6000602082019050818103600083015262001b6a8162001b28565b9050919050565b7f4e487b7100000000000000000000000000000000000000000000000000000000600052602260045260246000fd5b6000600282049050600182168062001bb957607f821691505b60208210810362001bcf5762001bce62001b71565b5b50919050565b6156a48062001be56000396000f3fe6080604052600436106101cd5760003560e01c806370a08231116100f7578063ae5fe1f211610095578063c87b56dd11610064578063c87b56dd14610685578063cfd822f0146106c2578063e985e9c5146106ed578063f2fde38b1461072a576101cd565b8063ae5fe1f2146105d8578063b88d4fde146105f4578063c414b0891461061d578063c59f878b1461065a576101cd565b80638da5cb5b116100d15780638da5cb5b1461052e578063928c2bfd1461055957806395d89b4114610584578063a22cb465146105af576101cd565b806370a08231146104be578063715018a6146104fb57806377750c1e14610512576101cd565b80631e44e6721161016f57806342842e0e1161013e57806342842e0e146103de5780634f6ccce7146104075780635a1f3c28146104445780636352211e14610481576101cd565b80631e44e67214610333578063228fdcef1461035c57806323b872dd146103785780632f745c59146103a1576101cd565b8063095ea7b3116101ab578063095ea7b314610277578063150b7a02146102a057806318160ddd146102dd5780631da42f5d14610308576101cd565b806301ffc9a7146101d257806306fdde031461020f578063081812fc1461023a575b600080fd5b3480156101de57600080fd5b506101f960048036038101906101f491906137e0565b610753565b6040516102069190613828565b60405180910390f35b34801561021b57600080fd5b506102246107cd565b60405161023191906138dc565b60405180910390f35b34801561024657600080fd5b50610261600480360381019061025c9190613934565b61085f565b60405161026e91906139a2565b60405180910390f35b34801561028357600080fd5b5061029e600480360381019061029991906139e9565b6108a5565b005b3480156102ac57600080fd5b506102c760048036038101906102c29190613a8e565b6109bc565b6040516102d49190613b25565b60405180910390f35b3480156102e957600080fd5b506102f26109d1565b6040516102ff9190613b4f565b60405180910390f35b34801561031457600080fd5b5061031d6109de565b60405161032a9190613b4f565b60405180910390f35b34801561033f57600080fd5b5061035a60048036038101906103559190613d84565b6109ee565b005b61037660048036038101906103719190613ea3565b610b8f565b005b34801561038457600080fd5b5061039f600480360381019061039a9190613f12565b610c60565b005b3480156103ad57600080fd5b506103c860048036038101906103c391906139e9565b610cc0565b6040516103d59190613b4f565b60405180910390f35b3480156103ea57600080fd5b5061040560048036038101906104009190613f12565b610d65565b005b34801561041357600080fd5b5061042e60048036038101906104299190613934565b610d85565b60405161043b9190613b4f565b60405180910390f35b34801561045057600080fd5b5061046b60048036038101906104669190613934565b610df6565b6040516104789190614042565b60405180910390f35b34801561048d57600080fd5b506104a860048036038101906104a39190613934565b610fed565b6040516104b591906139a2565b60405180910390f35b3480156104ca57600080fd5b506104e560048036038101906104e09190614064565b611073565b6040516104f29190613b4f565b60405180910390f35b34801561050757600080fd5b5061051061112a565b005b61052c600480360381019061052791906140e7565b61113e565b005b34801561053a57600080fd5b5061054361124b565b60405161055091906139a2565b60405180910390f35b34801561056557600080fd5b5061056e611274565b60405161057b9190614372565b60405180910390f35b34801561059057600080fd5b50610599611460565b6040516105a691906138dc565b60405180910390f35b3480156105bb57600080fd5b506105d660048036038101906105d191906143c0565b6114f2565b005b6105f260048036038101906105ed9190614400565b611508565b005b34801561060057600080fd5b5061061b600480360381019061061691906144e1565b611b1f565b005b34801561062957600080fd5b50610644600480360381019061063f9190614064565b611b81565b6040516106519190613b4f565b60405180910390f35b34801561066657600080fd5b5061066f611c00565b60405161067c9190614642565b60405180910390f35b34801561069157600080fd5b506106ac60048036038101906106a79190613934565b611c10565b6040516106b991906138dc565b60405180910390f35b3480156106ce57600080fd5b506106d7611c78565b6040516106e49190613b4f565b60405180910390f35b3480156106f957600080fd5b50610714600480360381019061070f9190614664565b611c7d565b6040516107219190613828565b60405180910390f35b34801561073657600080fd5b50610751600480360381019061074c9190614064565b611d11565b005b60007f780e9d63000000000000000000000000000000000000000000000000000000007bffffffffffffffffffffffffffffffffffffffffffffffffffffffff1916827bffffffffffffffffffffffffffffffffffffffffffffffffffffffff191614806107c657506107c582611f01565b5b9050919050565b6060600180546107dc906146d3565b80601f0160208091040260200160405190810160405280929190818152602001828054610808906146d3565b80156108555780601f1061082a57610100808354040283529160200191610855565b820191906000526020600020905b81548152906001019060200180831161083857829003601f168201915b5050505050905090565b600061086a82611fe3565b6005600083815260200190815260200160002060009054906101000a900473ffffffffffffffffffffffffffffffffffffffff169050919050565b60006108b082610fed565b90508073ffffffffffffffffffffffffffffffffffffffff168373ffffffffffffffffffffffffffffffffffffffff1603610920576040517f08c379a000000000000000000000000000000000000000000000000000000000815260040161091790614776565b60405180910390fd5b8073ffffffffffffffffffffffffffffffffffffffff1661093f61202e565b73ffffffffffffffffffffffffffffffffffffffff16148061096e575061096d8161096861202e565b611c7d565b5b6109ad576040517f08c379a00000000000000000000000000000000000000000000000000000000081526004016109a490614808565b60405180910390fd5b6109b78383612036565b505050565b600063150b7a0260e01b905095945050505050565b6000600980549050905090565b60006109e933611b81565b905090565b6109f66120ef565b606482606001511115610a3e576040517f08c379a0000000000000000000000000000000000000000000000000000000008152600401610a3590614874565b60405180910390fd5b6000610a4a600c611d94565b9050610a56600c611da2565b82600f60008381526020019081526020016000206000820151816000019080519060200190610a869291906135e6565b506020820151816001019080519060200190610aa39291906135e6565b506040820151816002019080519060200190610ac09291906135e6565b5060608201518160030155608082015181600401559050506000836080015167ffffffffffffffff811115610af857610af7613b6f565b5b604051908082528060200260200182016040528015610b265781602001602082028036833780820191505090505b50905060005b8460800151811015610b7d57610b42600b611d94565b828281518110610b5557610b54614894565b5b602002602001018181525050610b6a8361216d565b8080610b75906148f2565b915050610b2c565b50610b898282856121da565b50505050565b60005b8251811015610c4f576000838281518110610bb057610baf614894565b5b602002602001015190503373ffffffffffffffffffffffffffffffffffffffff16610bda82610fed565b73ffffffffffffffffffffffffffffffffffffffff1614610c30576040517f08c379a0000000000000000000000000000000000000000000000000000000008152600401610c2790614986565b60405180910390fd5b610c3b333083610d65565b508080610c47906148f2565b915050610b92565b50610c5b8383836121da565b505050565b610c71610c6b61202e565b82612330565b610cb0576040517f08c379a0000000000000000000000000000000000000000000000000000000008152600401610ca790614a18565b60405180910390fd5b610cbb8383836123c5565b505050565b6000610ccb83611073565b8210610d0c576040517f08c379a0000000000000000000000000000000000000000000000000000000008152600401610d0390614aaa565b60405180910390fd5b600760008473ffffffffffffffffffffffffffffffffffffffff1673ffffffffffffffffffffffffffffffffffffffff168152602001908152602001600020600083815260200190815260200160002054905092915050565b610d8083838360405180602001604052806000815250611b1f565b505050565b6000610d8f6109d1565b8210610dd0576040517f08c379a0000000000000000000000000000000000000000000000000000000008152600401610dc790614b3c565b60405180910390fd5b60098281548110610de457610de3614894565b5b90600052602060002001549050919050565b610dfe61366c565b600f60008381526020019081526020016000206040518060a0016040529081600082018054610e2c906146d3565b80601f0160208091040260200160405190810160405280929190818152602001828054610e58906146d3565b8015610ea55780601f10610e7a57610100808354040283529160200191610ea5565b820191906000526020600020905b815481529060010190602001808311610e8857829003601f168201915b50505050508152602001600182018054610ebe906146d3565b80601f0160208091040260200160405190810160405280929190818152602001828054610eea906146d3565b8015610f375780601f10610f0c57610100808354040283529160200191610f37565b820191906000526020600020905b815481529060010190602001808311610f1a57829003601f168201915b50505050508152602001600282018054610f50906146d3565b80601f0160208091040260200160405190810160405280929190818152602001828054610f7c906146d3565b8015610fc95780601f10610f9e57610100808354040283529160200191610fc9565b820191906000526020600020905b815481529060010190602001808311610fac57829003601f168201915b50505050508152602001600382015481526020016004820154815250509050919050565b600080610ff9836126be565b9050600073ffffffffffffffffffffffffffffffffffffffff168173ffffffffffffffffffffffffffffffffffffffff160361106a576040517f08c379a000000000000000000000000000000000000000000000000000000000815260040161106190614ba8565b60405180910390fd5b80915050919050565b60008073ffffffffffffffffffffffffffffffffffffffff168273ffffffffffffffffffffffffffffffffffffffff16036110e3576040517f08c379a00000000000000000000000000000000000000000000000000000000081526004016110da90614c3a565b60405180910390fd5b600460008373ffffffffffffffffffffffffffffffffffffffff1673ffffffffffffffffffffffffffffffffffffffff168152602001908152602001600020549050919050565b6111326120ef565b61113c60006126fb565b565b60008383905011611184576040517f08c379a000000000000000000000000000000000000000000000000000000000815260040161117b90614ca6565b60405180910390fd5b60005b838390508110156112455760008484838181106111a7576111a6614894565b5b9050602002013590503373ffffffffffffffffffffffffffffffffffffffff166111d082610fed565b73ffffffffffffffffffffffffffffffffffffffff1614611226576040517f08c379a000000000000000000000000000000000000000000000000000000000815260040161121d90614d38565b60405180910390fd5b611231338483610d65565b50808061123d906148f2565b915050611187565b50505050565b60008060009054906101000a900473ffffffffffffffffffffffffffffffffffffffff16905090565b6060600060118054905067ffffffffffffffff81111561129757611296613b6f565b5b6040519080825280602002602001820160405280156112d057816020015b6112bd61369b565b8152602001906001900390816112b55790505b50905060005b601180549050811015611458576000601182815481106112f9576112f8614894565b5b906000526020600020015490506000601060008381526020019081526020016000206040518060e001604052908160008201548152602001600182015481526020016002820180548060200260200160405190810160405280929190818152602001828054801561138957602002820191906000526020600020905b815481526020019060010190808311611375575b50505050508152602001600382015481526020016004820160009054906101000a900473ffffffffffffffffffffffffffffffffffffffff1673ffffffffffffffffffffffffffffffffffffffff1673ffffffffffffffffffffffffffffffffffffffff1681526020016004820160149054906101000a900460ff1615151515815260200160058201548152505090508060a0015115611443578084848151811061143757611436614894565b5b60200260200101819052505b50508080611450906148f2565b9150506112d6565b508091505090565b60606002805461146f906146d3565b80601f016020809104026020016040519081016040528092919081815260200182805461149b906146d3565b80156114e85780601f106114bd576101008083540402835291602001916114e8565b820191906000526020600020905b8154815290600101906020018083116114cb57829003601f168201915b5050505050905090565b6115046114fd61202e565b83836127bf565b5050565b6000811161154b576040517f08c379a000000000000000000000000000000000000000000000000000000000815260040161154290614da4565b60405180910390fd5b6010600083815260200190815260200160002060040160149054906101000a900460ff166115ae576040517f08c379a00000000000000000000000000000000000000000000000000000000081526004016115a590614e36565b60405180910390fd5b6000601060008481526020019081526020016000206040518060e001604052908160008201548152602001600182015481526020016002820180548060200260200160405190810160405280929190818152602001828054801561163157602002820191906000526020600020905b81548152602001906001019080831161161d575b50505050508152602001600382015481526020016004820160009054906101000a900473ffffffffffffffffffffffffffffffffffffffff1673ffffffffffffffffffffffffffffffffffffffff1673ffffffffffffffffffffffffffffffffffffffff1681526020016004820160149054906101000a900460ff16151515158152602001600582015481525050905060008160c001518260400151516116d89190614e56565b90508083111561171d576040517f08c379a000000000000000000000000000000000000000000000000000000000815260040161171490614ed6565b60405180910390fd5b3482606001511115611764576040517f08c379a000000000000000000000000000000000000000000000000000000000815260040161175b90614f42565b60405180910390fd5b60008260c0015190505b838110156117c25760008360400151828151811061178f5761178e614894565b5b602002602001015190506117a33382612036565b6117ae303383610d65565b5080806117ba906148f2565b91505061176e565b50828260c0018181516117d59190614f62565b915081815250508083036118f75760008260a0019015159081151581525050600060016011805490506118089190614e56565b905060008167ffffffffffffffff81111561182657611825613b6f565b5b6040519080825280602002602001820160405280156118545781602001602082028036833780820191505090505b5090506000805b6011805490508110156118db5760006011828154811061187e5761187d614894565b5b906000526020600020015490508881146118c257808484846118a09190614e56565b815181106118b1576118b0614894565b5b6020026020010181815250506118c7565b600192505b5080806118d3906148f2565b91505061185b565b5081601190805190602001906118f29291906136f0565b505050505b81601060008681526020019081526020016000206000820151816000015560208201518160010155604082015181600201908051906020019061193b9291906136f0565b506060820151816003015560808201518160040160006101000a81548173ffffffffffffffffffffffffffffffffffffffff021916908373ffffffffffffffffffffffffffffffffffffffff16021790555060a08201518160040160146101000a81548160ff02191690831515021790555060c082015181600501559050506119c261124b565b73ffffffffffffffffffffffffffffffffffffffff16826080015173ffffffffffffffffffffffffffffffffffffffff1603611a4b57611a0061124b565b73ffffffffffffffffffffffffffffffffffffffff166108fc349081150290604051600060405180830381858888f19350505050158015611a45573d6000803e3d6000fd5b50611b19565b60006064806002611a5c9190614fe7565b34611a679190615018565b611a719190614fe7565b9050826080015173ffffffffffffffffffffffffffffffffffffffff166108fc8234611a9d9190614e56565b9081150290604051600060405180830381858888f19350505050158015611ac8573d6000803e3d6000fd5b50611ad161124b565b73ffffffffffffffffffffffffffffffffffffffff166108fc829081150290604051600060405180830381858888f19350505050158015611b16573d6000803e3d6000fd5b50505b50505050565b611b30611b2a61202e565b83612330565b611b6f576040517f08c379a0000000000000000000000000000000000000000000000000000000008152600401611b6690614a18565b60405180910390fd5b611b7b8484848461292b565b50505050565b600080611b8d83612987565b90506000805b8251811015611bf5576000838281518110611bb157611bb0614894565b5b60200260200101516000015190506000611bca82610df6565b90508381606001511115611be057806060015193505b50508080611bed906148f2565b915050611b93565b508092505050919050565b6060611c0b33612987565b905090565b6060611c1b82611fe3565b6000611c25612a7c565b90506000815111611c455760405180602001604052806000815250611c70565b80611c4f84612a93565b604051602001611c609291906150ae565b6040516020818303038152906040525b915050919050565b600281565b6000600660008473ffffffffffffffffffffffffffffffffffffffff1673ffffffffffffffffffffffffffffffffffffffff16815260200190815260200160002060008373ffffffffffffffffffffffffffffffffffffffff1673ffffffffffffffffffffffffffffffffffffffff16815260200190815260200160002060009054906101000a900460ff16905092915050565b611d196120ef565b600073ffffffffffffffffffffffffffffffffffffffff168173ffffffffffffffffffffffffffffffffffffffff1603611d88576040517f08c379a0000000000000000000000000000000000000000000000000000000008152600401611d7f90615144565b60405180910390fd5b611d91816126fb565b50565b600081600001549050919050565b6001816000016000828254019250508190555050565b6000808273ffffffffffffffffffffffffffffffffffffffff163b119050919050565b6001811115611efb57600073ffffffffffffffffffffffffffffffffffffffff168473ffffffffffffffffffffffffffffffffffffffff1614611e6f5780600460008673ffffffffffffffffffffffffffffffffffffffff1673ffffffffffffffffffffffffffffffffffffffff1681526020019081526020016000206000828254611e679190614e56565b925050819055505b600073ffffffffffffffffffffffffffffffffffffffff168373ffffffffffffffffffffffffffffffffffffffff1614611efa5780600460008573ffffffffffffffffffffffffffffffffffffffff1673ffffffffffffffffffffffffffffffffffffffff1681526020019081526020016000206000828254611ef29190614f62565b925050819055505b5b50505050565b60007f80ac58cd000000000000000000000000000000000000000000000000000000007bffffffffffffffffffffffffffffffffffffffffffffffffffffffff1916827bffffffffffffffffffffffffffffffffffffffffffffffffffffffff19161480611fcc57507f5b5e139f000000000000000000000000000000000000000000000000000000007bffffffffffffffffffffffffffffffffffffffffffffffffffffffff1916827bffffffffffffffffffffffffffffffffffffffffffffffffffffffff1916145b80611fdc5750611fdb82612b61565b5b9050919050565b611fec81612bcb565b61202b576040517f08c379a000000000000000000000000000000000000000000000000000000000815260040161202290614ba8565b60405180910390fd5b50565b600033905090565b816005600083815260200190815260200160002060006101000a81548173ffffffffffffffffffffffffffffffffffffffff021916908373ffffffffffffffffffffffffffffffffffffffff160217905550808273ffffffffffffffffffffffffffffffffffffffff166120a983610fed565b73ffffffffffffffffffffffffffffffffffffffff167f8c5be1e5ebec7d5bd14f71427d1e84f3dd0314c0f7b2291e5b200ac8c7c3b92560405160405180910390a45050565b6120f761202e565b73ffffffffffffffffffffffffffffffffffffffff1661211561124b565b73ffffffffffffffffffffffffffffffffffffffff161461216b576040517f08c379a0000000000000000000000000000000000000000000000000000000008152600401612162906151b0565b60405180910390fd5b565b6121756120ef565b6000612181600b611d94565b905061218d600b611da2565b604051806040016040528083815260200182815250600e600083815260200190815260200160002060008201518160000155602082015181600101559050506121d63082612c0c565b5050565b60006121e6600d611d94565b90506121f2600d611da2565b6040518060e001604052808281526020018581526020018481526020018381526020013373ffffffffffffffffffffffffffffffffffffffff168152602001600115158152602001600081525060106000838152602001908152602001600020600082015181600001556020820151816001015560408201518160020190805190602001906122829291906136f0565b506060820151816003015560808201518160040160006101000a81548173ffffffffffffffffffffffffffffffffffffffff021916908373ffffffffffffffffffffffffffffffffffffffff16021790555060a08201518160040160146101000a81548160ff02191690831515021790555060c08201518160050155905050601181908060018154018082558091505060019003906000526020600020016000909190919091505550505050565b60008061233c83610fed565b90508073ffffffffffffffffffffffffffffffffffffffff168473ffffffffffffffffffffffffffffffffffffffff16148061237e575061237d8185611c7d565b5b806123bc57508373ffffffffffffffffffffffffffffffffffffffff166123a48461085f565b73ffffffffffffffffffffffffffffffffffffffff16145b91505092915050565b8273ffffffffffffffffffffffffffffffffffffffff166123e582610fed565b73ffffffffffffffffffffffffffffffffffffffff161461243b576040517f08c379a000000000000000000000000000000000000000000000000000000000815260040161243290615242565b60405180910390fd5b600073ffffffffffffffffffffffffffffffffffffffff168273ffffffffffffffffffffffffffffffffffffffff16036124aa576040517f08c379a00000000000000000000000000000000000000000000000000000000081526004016124a1906152d4565b60405180910390fd5b6124b78383836001612c2a565b8273ffffffffffffffffffffffffffffffffffffffff166124d782610fed565b73ffffffffffffffffffffffffffffffffffffffff161461252d576040517f08c379a000000000000000000000000000000000000000000000000000000000815260040161252490615242565b60405180910390fd5b6005600082815260200190815260200160002060006101000a81549073ffffffffffffffffffffffffffffffffffffffff02191690556001600460008573ffffffffffffffffffffffffffffffffffffffff1673ffffffffffffffffffffffffffffffffffffffff168152602001908152602001600020600082825403925050819055506001600460008473ffffffffffffffffffffffffffffffffffffffff1673ffffffffffffffffffffffffffffffffffffffff16815260200190815260200160002060008282540192505081905550816003600083815260200190815260200160002060006101000a81548173ffffffffffffffffffffffffffffffffffffffff021916908373ffffffffffffffffffffffffffffffffffffffff160217905550808273ffffffffffffffffffffffffffffffffffffffff168473ffffffffffffffffffffffffffffffffffffffff167fddf252ad1be2c89b69c2b068fc378daa952ba7f163c4a11628f55a4df523b3ef60405160405180910390a46126b98383836001612d88565b505050565b60006003600083815260200190815260200160002060009054906101000a900473ffffffffffffffffffffffffffffffffffffffff169050919050565b60008060009054906101000a900473ffffffffffffffffffffffffffffffffffffffff169050816000806101000a81548173ffffffffffffffffffffffffffffffffffffffff021916908373ffffffffffffffffffffffffffffffffffffffff1602179055508173ffffffffffffffffffffffffffffffffffffffff168173ffffffffffffffffffffffffffffffffffffffff167f8be0079c531659141344cd1fd0a4f28419497f9722a3daafe3b4186f6b6457e060405160405180910390a35050565b8173ffffffffffffffffffffffffffffffffffffffff168373ffffffffffffffffffffffffffffffffffffffff160361282d576040517f08c379a000000000000000000000000000000000000000000000000000000000815260040161282490615340565b60405180910390fd5b80600660008573ffffffffffffffffffffffffffffffffffffffff1673ffffffffffffffffffffffffffffffffffffffff16815260200190815260200160002060008473ffffffffffffffffffffffffffffffffffffffff1673ffffffffffffffffffffffffffffffffffffffff16815260200190815260200160002060006101000a81548160ff0219169083151502179055508173ffffffffffffffffffffffffffffffffffffffff168373ffffffffffffffffffffffffffffffffffffffff167f17307eab39ab6107e8899845ad3d59bd9653f200f220920489ca2b5937696c318360405161291e9190613828565b60405180910390a3505050565b6129368484846123c5565b61294284848484612d8e565b612981576040517f08c379a0000000000000000000000000000000000000000000000000000000008152600401612978906153d2565b60405180910390fd5b50505050565b6060600061299483611073565b905060008167ffffffffffffffff8111156129b2576129b1613b6f565b5b6040519080825280602002602001820160405280156129eb57816020015b6129d861373d565b8152602001906001900390816129d05790505b50905060005b82811015612a71576000612a058683610cc0565b90506000600e600083815260200190815260200160002060405180604001604052908160008201548152602001600182015481525050905080848481518110612a5157612a50614894565b5b602002602001018190525050508080612a69906148f2565b9150506129f1565b508092505050919050565b606060405180602001604052806000815250905090565b606060006001612aa284612f15565b01905060008167ffffffffffffffff811115612ac157612ac0613b6f565b5b6040519080825280601f01601f191660200182016040528015612af35781602001600182028036833780820191505090505b509050600082602001820190505b600115612b56578080600190039150507f3031323334353637383961626364656600000000000000000000000000000000600a86061a8153600a8581612b4a57612b49614fb8565b5b04945060008503612b01575b819350505050919050565b60007f01ffc9a7000000000000000000000000000000000000000000000000000000007bffffffffffffffffffffffffffffffffffffffffffffffffffffffff1916827bffffffffffffffffffffffffffffffffffffffffffffffffffffffff1916149050919050565b60008073ffffffffffffffffffffffffffffffffffffffff16612bed836126be565b73ffffffffffffffffffffffffffffffffffffffff1614159050919050565b612c26828260405180602001604052806000815250613068565b5050565b612c3684848484611ddb565b6001811115612c7a576040517f08c379a0000000000000000000000000000000000000000000000000000000008152600401612c7190615464565b60405180910390fd5b6000829050600073ffffffffffffffffffffffffffffffffffffffff168573ffffffffffffffffffffffffffffffffffffffff1603612cc157612cbc816130c3565b612d00565b8373ffffffffffffffffffffffffffffffffffffffff168573ffffffffffffffffffffffffffffffffffffffff1614612cff57612cfe858261310c565b5b5b600073ffffffffffffffffffffffffffffffffffffffff168473ffffffffffffffffffffffffffffffffffffffff1603612d4257612d3d81613279565b612d81565b8473ffffffffffffffffffffffffffffffffffffffff168473ffffffffffffffffffffffffffffffffffffffff1614612d8057612d7f848261334a565b5b5b5050505050565b50505050565b6000612daf8473ffffffffffffffffffffffffffffffffffffffff16611db8565b15612f08578373ffffffffffffffffffffffffffffffffffffffff1663150b7a02612dd861202e565b8786866040518563ffffffff1660e01b8152600401612dfa94939291906154d9565b6020604051808303816000875af1925050508015612e3657506040513d601f19601f82011682018060405250810190612e33919061553a565b60015b612eb8573d8060008114612e66576040519150601f19603f3d011682016040523d82523d6000602084013e612e6b565b606091505b506000815103612eb0576040517f08c379a0000000000000000000000000000000000000000000000000000000008152600401612ea7906153d2565b60405180910390fd5b805181602001fd5b63150b7a0260e01b7bffffffffffffffffffffffffffffffffffffffffffffffffffffffff1916817bffffffffffffffffffffffffffffffffffffffffffffffffffffffff191614915050612f0d565b600190505b949350505050565b600080600090507a184f03e93ff9f4daa797ed6e38ed64bf6a1f0100000000000000008310612f73577a184f03e93ff9f4daa797ed6e38ed64bf6a1f0100000000000000008381612f6957612f68614fb8565b5b0492506040810190505b6d04ee2d6d415b85acef81000000008310612fb0576d04ee2d6d415b85acef81000000008381612fa657612fa5614fb8565b5b0492506020810190505b662386f26fc100008310612fdf57662386f26fc100008381612fd557612fd4614fb8565b5b0492506010810190505b6305f5e1008310613008576305f5e1008381612ffe57612ffd614fb8565b5b0492506008810190505b612710831061302d57612710838161302357613022614fb8565b5b0492506004810190505b60648310613050576064838161304657613045614fb8565b5b0492506002810190505b600a831061305f576001810190505b80915050919050565b61307283836133c9565b61307f6000848484612d8e565b6130be576040517f08c379a00000000000000000000000000000000000000000000000000000000081526004016130b5906153d2565b60405180910390fd5b505050565b600980549050600a600083815260200190815260200160002081905550600981908060018154018082558091505060019003906000526020600020016000909190919091505550565b6000600161311984611073565b6131239190614e56565b9050600060086000848152602001908152602001600020549050818114613208576000600760008673ffffffffffffffffffffffffffffffffffffffff1673ffffffffffffffffffffffffffffffffffffffff168152602001908152602001600020600084815260200190815260200160002054905080600760008773ffffffffffffffffffffffffffffffffffffffff1673ffffffffffffffffffffffffffffffffffffffff168152602001908152602001600020600084815260200190815260200160002081905550816008600083815260200190815260200160002081905550505b6008600084815260200190815260200160002060009055600760008573ffffffffffffffffffffffffffffffffffffffff1673ffffffffffffffffffffffffffffffffffffffff16815260200190815260200160002060008381526020019081526020016000206000905550505050565b6000600160098054905061328d9190614e56565b90506000600a60008481526020019081526020016000205490506000600983815481106132bd576132bc614894565b5b9060005260206000200154905080600983815481106132df576132de614894565b5b906000526020600020018190555081600a600083815260200190815260200160002081905550600a600085815260200190815260200160002060009055600980548061332e5761332d615567565b5b6001900381819060005260206000200160009055905550505050565b600061335583611073565b905081600760008573ffffffffffffffffffffffffffffffffffffffff1673ffffffffffffffffffffffffffffffffffffffff168152602001908152602001600020600083815260200190815260200160002081905550806008600084815260200190815260200160002081905550505050565b600073ffffffffffffffffffffffffffffffffffffffff168273ffffffffffffffffffffffffffffffffffffffff1603613438576040517f08c379a000000000000000000000000000000000000000000000000000000000815260040161342f906155e2565b60405180910390fd5b61344181612bcb565b15613481576040517f08c379a00000000000000000000000000000000000000000000000000000000081526004016134789061564e565b60405180910390fd5b61348f600083836001612c2a565b61349881612bcb565b156134d8576040517f08c379a00000000000000000000000000000000000000000000000000000000081526004016134cf9061564e565b60405180910390fd5b6001600460008473ffffffffffffffffffffffffffffffffffffffff1673ffffffffffffffffffffffffffffffffffffffff16815260200190815260200160002060008282540192505081905550816003600083815260200190815260200160002060006101000a81548173ffffffffffffffffffffffffffffffffffffffff021916908373ffffffffffffffffffffffffffffffffffffffff160217905550808273ffffffffffffffffffffffffffffffffffffffff16600073ffffffffffffffffffffffffffffffffffffffff167fddf252ad1be2c89b69c2b068fc378daa952ba7f163c4a11628f55a4df523b3ef60405160405180910390a46135e2600083836001612d88565b5050565b8280546135f2906146d3565b90600052602060002090601f016020900481019282613614576000855561365b565b82601f1061362d57805160ff191683800117855561365b565b8280016001018555821561365b579182015b8281111561365a57825182559160200191906001019061363f565b5b5090506136689190613757565b5090565b6040518060a0016040528060608152602001606081526020016060815260200160008152602001600081525090565b6040518060e0016040528060008152602001600081526020016060815260200160008152602001600073ffffffffffffffffffffffffffffffffffffffff168152602001600015158152602001600081525090565b82805482825590600052602060002090810192821561372c579160200282015b8281111561372b578251825591602001919060010190613710565b5b5090506137399190613757565b5090565b604051806040016040528060008152602001600081525090565b5b80821115613770576000816000905550600101613758565b5090565b6000604051905090565b600080fd5b600080fd5b60007fffffffff0000000000000000000000000000000000000000000000000000000082169050919050565b6137bd81613788565b81146137c857600080fd5b50565b6000813590506137da816137b4565b92915050565b6000602082840312156137f6576137f561377e565b5b6000613804848285016137cb565b91505092915050565b60008115159050919050565b6138228161380d565b82525050565b600060208201905061383d6000830184613819565b92915050565b600081519050919050565b600082825260208201905092915050565b60005b8381101561387d578082015181840152602081019050613862565b8381111561388c576000848401525b50505050565b6000601f19601f8301169050919050565b60006138ae82613843565b6138b8818561384e565b93506138c881856020860161385f565b6138d181613892565b840191505092915050565b600060208201905081810360008301526138f681846138a3565b905092915050565b6000819050919050565b613911816138fe565b811461391c57600080fd5b50565b60008135905061392e81613908565b92915050565b60006020828403121561394a5761394961377e565b5b60006139588482850161391f565b91505092915050565b600073ffffffffffffffffffffffffffffffffffffffff82169050919050565b600061398c82613961565b9050919050565b61399c81613981565b82525050565b60006020820190506139b76000830184613993565b92915050565b6139c681613981565b81146139d157600080fd5b50565b6000813590506139e3816139bd565b92915050565b60008060408385031215613a00576139ff61377e565b5b6000613a0e858286016139d4565b9250506020613a1f8582860161391f565b9150509250929050565b600080fd5b600080fd5b600080fd5b60008083601f840112613a4e57613a4d613a29565b5b8235905067ffffffffffffffff811115613a6b57613a6a613a2e565b5b602083019150836001820283011115613a8757613a86613a33565b5b9250929050565b600080600080600060808688031215613aaa57613aa961377e565b5b6000613ab8888289016139d4565b9550506020613ac9888289016139d4565b9450506040613ada8882890161391f565b935050606086013567ffffffffffffffff811115613afb57613afa613783565b5b613b0788828901613a38565b92509250509295509295909350565b613b1f81613788565b82525050565b6000602082019050613b3a6000830184613b16565b92915050565b613b49816138fe565b82525050565b6000602082019050613b646000830184613b40565b92915050565b600080fd5b7f4e487b7100000000000000000000000000000000000000000000000000000000600052604160045260246000fd5b613ba782613892565b810181811067ffffffffffffffff82111715613bc657613bc5613b6f565b5b80604052505050565b6000613bd9613774565b9050613be58282613b9e565b919050565b600080fd5b600080fd5b600067ffffffffffffffff821115613c0f57613c0e613b6f565b5b613c1882613892565b9050602081019050919050565b82818337600083830152505050565b6000613c47613c4284613bf4565b613bcf565b905082815260208101848484011115613c6357613c62613bef565b5b613c6e848285613c25565b509392505050565b600082601f830112613c8b57613c8a613a29565b5b8135613c9b848260208601613c34565b91505092915050565b600060a08284031215613cba57613cb9613b6a565b5b613cc460a0613bcf565b9050600082013567ffffffffffffffff811115613ce457613ce3613bea565b5b613cf084828501613c76565b600083015250602082013567ffffffffffffffff811115613d1457613d13613bea565b5b613d2084828501613c76565b602083015250604082013567ffffffffffffffff811115613d4457613d43613bea565b5b613d5084828501613c76565b6040830152506060613d648482850161391f565b6060830152506080613d788482850161391f565b60808301525092915050565b60008060408385031215613d9b57613d9a61377e565b5b600083013567ffffffffffffffff811115613db957613db8613783565b5b613dc585828601613ca4565b9250506020613dd68582860161391f565b9150509250929050565b600067ffffffffffffffff821115613dfb57613dfa613b6f565b5b602082029050602081019050919050565b6000613e1f613e1a84613de0565b613bcf565b90508083825260208201905060208402830185811115613e4257613e41613a33565b5b835b81811015613e6b5780613e57888261391f565b845260208401935050602081019050613e44565b5050509392505050565b600082601f830112613e8a57613e89613a29565b5b8135613e9a848260208601613e0c565b91505092915050565b600080600060608486031215613ebc57613ebb61377e565b5b6000613eca8682870161391f565b935050602084013567ffffffffffffffff811115613eeb57613eea613783565b5b613ef786828701613e75565b9250506040613f088682870161391f565b9150509250925092565b600080600060608486031215613f2b57613f2a61377e565b5b6000613f39868287016139d4565b9350506020613f4a868287016139d4565b9250506040613f5b8682870161391f565b9150509250925092565b600082825260208201905092915050565b6000613f8182613843565b613f8b8185613f65565b9350613f9b81856020860161385f565b613fa481613892565b840191505092915050565b613fb8816138fe565b82525050565b600060a0830160008301518482036000860152613fdb8282613f76565b91505060208301518482036020860152613ff58282613f76565b9150506040830151848203604086015261400f8282613f76565b91505060608301516140246060860182613faf565b5060808301516140376080860182613faf565b508091505092915050565b6000602082019050818103600083015261405c8184613fbe565b905092915050565b60006020828403121561407a5761407961377e565b5b6000614088848285016139d4565b91505092915050565b60008083601f8401126140a7576140a6613a29565b5b8235905067ffffffffffffffff8111156140c4576140c3613a2e565b5b6020830191508360208202830111156140e0576140df613a33565b5b9250929050565b600080600060408486031215614100576140ff61377e565b5b600084013567ffffffffffffffff81111561411e5761411d613783565b5b61412a86828701614091565b9350935050602061413d868287016139d4565b9150509250925092565b600081519050919050565b600082825260208201905092915050565b6000819050602082019050919050565b600081519050919050565b600082825260208201905092915050565b6000819050602082019050919050565b60006141ab8383613faf565b60208301905092915050565b6000602082019050919050565b60006141cf82614173565b6141d9818561417e565b93506141e48361418f565b8060005b838110156142155781516141fc888261419f565b9750614207836141b7565b9250506001810190506141e8565b5085935050505092915050565b61422b81613981565b82525050565b61423a8161380d565b82525050565b600060e0830160008301516142586000860182613faf565b50602083015161426b6020860182613faf565b506040830151848203604086015261428382826141c4565b91505060608301516142986060860182613faf565b5060808301516142ab6080860182614222565b5060a08301516142be60a0860182614231565b5060c08301516142d160c0860182613faf565b508091505092915050565b60006142e88383614240565b905092915050565b6000602082019050919050565b600061430882614147565b6143128185614152565b93508360208202850161432485614163565b8060005b85811015614360578484038952815161434185826142dc565b945061434c836142f0565b925060208a01995050600181019050614328565b50829750879550505050505092915050565b6000602082019050818103600083015261438c81846142fd565b905092915050565b61439d8161380d565b81146143a857600080fd5b50565b6000813590506143ba81614394565b92915050565b600080604083850312156143d7576143d661377e565b5b60006143e5858286016139d4565b92505060206143f6858286016143ab565b9150509250929050565b600080604083850312156144175761441661377e565b5b60006144258582860161391f565b92505060206144368582860161391f565b9150509250929050565b600067ffffffffffffffff82111561445b5761445a613b6f565b5b61446482613892565b9050602081019050919050565b600061448461447f84614440565b613bcf565b9050828152602081018484840111156144a05761449f613bef565b5b6144ab848285613c25565b509392505050565b600082601f8301126144c8576144c7613a29565b5b81356144d8848260208601614471565b91505092915050565b600080600080608085870312156144fb576144fa61377e565b5b6000614509878288016139d4565b945050602061451a878288016139d4565b935050604061452b8782880161391f565b925050606085013567ffffffffffffffff81111561454c5761454b613783565b5b614558878288016144b3565b91505092959194509250565b600081519050919050565b600082825260208201905092915050565b6000819050602082019050919050565b6040820160008201516145a66000850182613faf565b5060208201516145b96020850182613faf565b50505050565b60006145cb8383614590565b60408301905092915050565b6000602082019050919050565b60006145ef82614564565b6145f9818561456f565b935061460483614580565b8060005b8381101561463557815161461c88826145bf565b9750614627836145d7565b925050600181019050614608565b5085935050505092915050565b6000602082019050818103600083015261465c81846145e4565b905092915050565b6000806040838503121561467b5761467a61377e565b5b6000614689858286016139d4565b925050602061469a858286016139d4565b9150509250929050565b7f4e487b7100000000000000000000000000000000000000000000000000000000600052602260045260246000fd5b600060028204905060018216806146eb57607f821691505b6020821081036146fe576146fd6146a4565b5b50919050565b7f4552433732313a20617070726f76616c20746f2063757272656e74206f776e6560008201527f7200000000000000000000000000000000000000000000000000000000000000602082015250565b600061476060218361384e565b915061476b82614704565b604082019050919050565b6000602082019050818103600083015261478f81614753565b9050919050565b7f4552433732313a20617070726f76652063616c6c6572206973206e6f7420746f60008201527f6b656e206f776e6572206f7220617070726f76656420666f7220616c6c000000602082015250565b60006147f2603d8361384e565b91506147fd82614796565b604082019050919050565b60006020820190508181036000830152614821816147e5565b9050919050565b7f596f752063616e277420736574206120726564756374696f6e203e2031303000600082015250565b600061485e601f8361384e565b915061486982614828565b602082019050919050565b6000602082019050818103600083015261488d81614851565b9050919050565b7f4e487b7100000000000000000000000000000000000000000000000000000000600052603260045260246000fd5b7f4e487b7100000000000000000000000000000000000000000000000000000000600052601160045260246000fd5b60006148fd826138fe565b91507fffffffffffffffffffffffffffffffffffffffffffffffffffffffffffffffff820361492f5761492e6148c3565b5b600182019050919050565b7f20596f7520646f6e2774206f776e207468617420636172640000000000000000600082015250565b600061497060188361384e565b915061497b8261493a565b602082019050919050565b6000602082019050818103600083015261499f81614963565b9050919050565b7f4552433732313a2063616c6c6572206973206e6f7420746f6b656e206f776e6560008201527f72206f7220617070726f76656400000000000000000000000000000000000000602082015250565b6000614a02602d8361384e565b9150614a0d826149a6565b604082019050919050565b60006020820190508181036000830152614a31816149f5565b9050919050565b7f455243373231456e756d657261626c653a206f776e657220696e646578206f7560008201527f74206f6620626f756e6473000000000000000000000000000000000000000000602082015250565b6000614a94602b8361384e565b9150614a9f82614a38565b604082019050919050565b60006020820190508181036000830152614ac381614a87565b9050919050565b7f455243373231456e756d657261626c653a20676c6f62616c20696e646578206f60008201527f7574206f6620626f756e64730000000000000000000000000000000000000000602082015250565b6000614b26602c8361384e565b9150614b3182614aca565b604082019050919050565b60006020820190508181036000830152614b5581614b19565b9050919050565b7f4552433732313a20696e76616c696420746f6b656e2049440000000000000000600082015250565b6000614b9260188361384e565b9150614b9d82614b5c565b602082019050919050565b60006020820190508181036000830152614bc181614b85565b9050919050565b7f4552433732313a2061646472657373207a65726f206973206e6f74206120766160008201527f6c6964206f776e65720000000000000000000000000000000000000000000000602082015250565b6000614c2460298361384e565b9150614c2f82614bc8565b604082019050919050565b60006020820190508181036000830152614c5381614c17565b9050919050565b7f53686f756c642073656e64206174206c65617374203120636172640000000000600082015250565b6000614c90601b8361384e565b9150614c9b82614c5a565b602082019050919050565b60006020820190508181036000830152614cbf81614c83565b9050919050565b7f596f7520646f6e2774206f776e20746865206361726420796f7520747279207460008201527f6f2073656e640000000000000000000000000000000000000000000000000000602082015250565b6000614d2260268361384e565b9150614d2d82614cc6565b604082019050919050565b60006020820190508181036000830152614d5181614d15565b9050919050565b7f53686f756c6420627579206174206c6561737420312063617264000000000000600082015250565b6000614d8e601a8361384e565b9150614d9982614d58565b602082019050919050565b60006020820190508181036000830152614dbd81614d81565b9050919050565b7f5468652070726f76696465642073616c6542756e646c65496420646f65736e2760008201527f7420657869737400000000000000000000000000000000000000000000000000602082015250565b6000614e2060278361384e565b9150614e2b82614dc4565b604082019050919050565b60006020820190508181036000830152614e4f81614e13565b9050919050565b6000614e61826138fe565b9150614e6c836138fe565b925082821015614e7f57614e7e6148c3565b5b828203905092915050565b7f4e6f7420656e6f75676874206361726473206c65667473000000000000000000600082015250565b6000614ec060178361384e565b9150614ecb82614e8a565b602082019050919050565b60006020820190508181036000830152614eef81614eb3565b9050919050565b7f746f6f20706f6f72000000000000000000000000000000000000000000000000600082015250565b6000614f2c60088361384e565b9150614f3782614ef6565b602082019050919050565b60006020820190508181036000830152614f5b81614f1f565b9050919050565b6000614f6d826138fe565b9150614f78836138fe565b9250827fffffffffffffffffffffffffffffffffffffffffffffffffffffffffffffffff03821115614fad57614fac6148c3565b5b828201905092915050565b7f4e487b7100000000000000000000000000000000000000000000000000000000600052601260045260246000fd5b6000614ff2826138fe565b9150614ffd836138fe565b92508261500d5761500c614fb8565b5b828204905092915050565b6000615023826138fe565b915061502e836138fe565b9250817fffffffffffffffffffffffffffffffffffffffffffffffffffffffffffffffff0483118215151615615067576150666148c3565b5b828202905092915050565b600081905092915050565b600061508882613843565b6150928185615072565b93506150a281856020860161385f565b80840191505092915050565b60006150ba828561507d565b91506150c6828461507d565b91508190509392505050565b7f4f776e61626c653a206e6577206f776e657220697320746865207a65726f206160008201527f6464726573730000000000000000000000000000000000000000000000000000602082015250565b600061512e60268361384e565b9150615139826150d2565b604082019050919050565b6000602082019050818103600083015261515d81615121565b9050919050565b7f4f776e61626c653a2063616c6c6572206973206e6f7420746865206f776e6572600082015250565b600061519a60208361384e565b91506151a582615164565b602082019050919050565b600060208201905081810360008301526151c98161518d565b9050919050565b7f4552433732313a207472616e736665722066726f6d20696e636f72726563742060008201527f6f776e6572000000000000000000000000000000000000000000000000000000602082015250565b600061522c60258361384e565b9150615237826151d0565b604082019050919050565b6000602082019050818103600083015261525b8161521f565b9050919050565b7f4552433732313a207472616e7366657220746f20746865207a65726f2061646460008201527f7265737300000000000000000000000000000000000000000000000000000000602082015250565b60006152be60248361384e565b91506152c982615262565b604082019050919050565b600060208201905081810360008301526152ed816152b1565b9050919050565b7f4552433732313a20617070726f766520746f2063616c6c657200000000000000600082015250565b600061532a60198361384e565b9150615335826152f4565b602082019050919050565b600060208201905081810360008301526153598161531d565b9050919050565b7f4552433732313a207472616e7366657220746f206e6f6e20455243373231526560008201527f63656976657220696d706c656d656e7465720000000000000000000000000000602082015250565b60006153bc60328361384e565b91506153c782615360565b604082019050919050565b600060208201905081810360008301526153eb816153af565b9050919050565b7f455243373231456e756d657261626c653a20636f6e736563757469766520747260008201527f616e7366657273206e6f7420737570706f727465640000000000000000000000602082015250565b600061544e60358361384e565b9150615459826153f2565b604082019050919050565b6000602082019050818103600083015261547d81615441565b9050919050565b600081519050919050565b600082825260208201905092915050565b60006154ab82615484565b6154b5818561548f565b93506154c581856020860161385f565b6154ce81613892565b840191505092915050565b60006080820190506154ee6000830187613993565b6154fb6020830186613993565b6155086040830185613b40565b818103606083015261551a81846154a0565b905095945050505050565b600081519050615534816137b4565b92915050565b6000602082840312156155505761554f61377e565b5b600061555e84828501615525565b91505092915050565b7f4e487b7100000000000000000000000000000000000000000000000000000000600052603160045260246000fd5b7f4552433732313a206d696e7420746f20746865207a65726f2061646472657373600082015250565b60006155cc60208361384e565b91506155d782615596565b602082019050919050565b600060208201905081810360008301526155fb816155bf565b9050919050565b7f4552433732313a20746f6b656e20616c7265616479206d696e74656400000000600082015250565b6000615638601c8361384e565b915061564382615602565b602082019050919050565b600060208201905081810360008301526156678161562b565b905091905056fea26469706673582212203357ac5d95d463b8d5ea88c81faddae3584295a8a2b1b76f4e0215da5820d6bb64736f6c634300080d0033",
  "immutableReferences": {},
  "source": "// SPDX-License-Identifier: MIT\n// Tells the Solidity compiler to compile only from v0.8.13 to v0.9.0\npragma solidity ^0.8.13;\n\nimport \"@openzeppelin/contracts/utils/Counters.sol\";\nimport \"@openzeppelin/contracts/access/Ownable.sol\";\nimport \"@openzeppelin/contracts/utils/math/SafeMath.sol\";\nimport \"@openzeppelin/contracts/token/ERC721/extensions/ERC721Enumerable.sol\";\n\ncontract RailRoadCard is Ownable, ERC721Enumerable{\n    using SafeMath for uint256;\n\tusing Counters for Counters.Counter;\n\tuint private constant MAX_REDUCTION = 100;\n\tstruct Collection {\n\t\tstring name;\n\t\tstring description;\n\t\tstring imageUrl;\n\t\tuint reduction;\n\t\tuint amount;\n\t}\n\tstruct Card {\n\t\tuint collectionId;\n\t\tuint tokenId;\n\t}\n\tstruct SaleBundle{\n\t\tuint saleBundleId;\n\t\tuint collectionId;\n\t\tuint[] cardIds;\n\t\tuint price; //ether\n\t\taddress owner;\n\t\tbool active;\n\t\tuint soldedCards;\n\t}\n\tCounters.Counter private _nextTokenId;\n\tCounters.Counter private _nextCollectionId;\n\tCounters.Counter private _nextSaleBundleId;\n\tmapping (uint256 => Card) private cards;\n\tmapping (uint256 => Collection) private collections;\n\tmapping (uint256 => SaleBundle) private saleBundles;\n\tuint[] private activeSaleBundleIds;\n\tuint public constant royalities = 2;\n\n\tconstructor() ERC721(\"RailRoadCard\",\"SRRC\") {\n\t\t\t// TODO remove this\n\t\t\t// Collection memory collection = Collection(\"LALO SALAMANCA\",\"pete moi le cul lalo\",\"https://media.gqmagazine.fr/photos/5e96b6230b84640008631dd4/master/w_1920,h_1280,c_limit/20200408-saul-09.jpg\",20,5);\n\t\t\t// createCollection(collection,0.1 ether);\n\t\t\tCollection memory collection2 = Collection(\"DON eduardo\",\"pete moi le cul lalo\",\"https://i.imgur.com/fL3Xq4Y.jpg\",90,5);\n\t\t\tcreateCollection(collection2,10 ether);\n\t\t}\n\n\tfunction _mintNft(uint collectionId) private onlyOwner{\n\t\tuint tokenId = _nextTokenId.current();\n\t\t_nextTokenId.increment();\n\t\tcards[tokenId] = Card (collectionId,tokenId);\n\t\t_safeMint(address(this),tokenId);\n\t}\n\n\tfunction putCardsInSell(uint collectionId,uint[] memory cardIds,uint price) public payable {\n        for (uint i = 0; i < cardIds.length; i++) {\n\t\t\tuint cardId = cardIds[i];\n\t\t\trequire(ownerOf(cardId) == msg.sender,\" You don't own that card\");\n\t\t\tsafeTransferFrom(msg.sender,address(this),cardId);\n\t\t}\n\t\t_sell(collectionId,cardIds,price);\n\t}\n\n\tfunction _sell(uint collectionId,uint[] memory collectionCardsIds,uint price) private {\n\t\tuint saleBundleId = _nextSaleBundleId.current();\n\t\t_nextSaleBundleId.increment();\n\t\tsaleBundles[saleBundleId] = SaleBundle(saleBundleId,collectionId,collectionCardsIds,price,msg.sender,true,0);\n\t\tactiveSaleBundleIds.push(saleBundleId);\n\t}\n\n\tfunction onERC721Received(address, address, uint256, bytes calldata) external pure returns (bytes4) {\n        return IERC721Receiver.onERC721Received.selector;\n    }\n\n\tfunction getActiveSaleBundle() public view returns(SaleBundle[] memory) {\n\t\tSaleBundle[] memory activeSaleBundles= new SaleBundle[](activeSaleBundleIds.length);\n        for (uint i = 0; i < activeSaleBundleIds.length; i++) {\n\t\t\tuint activeSaleBundleId = activeSaleBundleIds[i];\n\t\t\tSaleBundle memory saleBundle = saleBundles[activeSaleBundleId];\n\t\t\tif(saleBundle.active){\n\t\t\t\tactiveSaleBundles[i] = saleBundle;\n\t\t\t}\n        }\n\t\treturn activeSaleBundles;\n\t}\n\tfunction getCollection(uint collectionId) public view returns(Collection memory) {\n\t\treturn collections[collectionId];\n\t}\n\n\tfunction getReduction(address owner) public view returns(uint){\n\t\tCard[] memory ownedCards = _getOwnedCards(owner);\n\t\tuint reduction = 0;\n        for (uint i = 0; i < ownedCards.length; i++) {\n\t\t\tuint collectionId = ownedCards[i].collectionId;\n\t\t\tCollection memory collection = getCollection(collectionId);\n\t\t\tif(collection.reduction > reduction){\n\t\t\t\treduction = collection.reduction;\n\t\t\t}\n\t\t}\n\t\treturn reduction;\n\t}\n\tfunction getReduction() public view returns(uint) {\n\t\treturn getReduction(msg.sender);\n\t}\n\n\tfunction createCollection (Collection memory collection, uint price) public onlyOwner{\n\t\trequire(collection.reduction <= MAX_REDUCTION,\"You can't set a reduction > 100\");\n\t\tuint collectionId = _nextCollectionId.current();\n\t\t_nextCollectionId.increment();\n\t\tcollections[collectionId] = collection;\n\t\tuint[] memory collectionCardsIds = new uint[](collection.amount);\n        for (uint i = 0; i < collection.amount; i++) {\n\t\t\tcollectionCardsIds[i] = _nextTokenId.current();\n\t\t\t_mintNft(collectionId);\n        }\n\t\t_sell(collectionId,collectionCardsIds,price);\n\t}\n\n\tfunction sendCards(uint[] calldata cardIds,address to) payable public{\n\t\trequire( cardIds.length > 0, \"Should send at least 1 card\");\n        for (uint i = 0; i < cardIds.length; i++) {\n\t\t\tuint cardIdToTransfer = cardIds[i];\n\t\t\trequire(ownerOf(cardIdToTransfer) == msg.sender, \"You don't own the card you try to send\");\n\t\t\tsafeTransferFrom(msg.sender,to,cardIdToTransfer);\n        }\n\t}\n\tfunction buyCards(uint saleBundleId,uint count) payable public {\n\t\trequire( count > 0, \"Should buy at least 1 card\");\n\t\trequire(saleBundles[saleBundleId].active,\"The provided saleBundleId doesn't exist\");\n\t\tSaleBundle memory saleBundle = saleBundles[saleBundleId];\n\t\tuint cardsLefts = saleBundle.cardIds.length - saleBundle.soldedCards;\n\t\trequire( count <= cardsLefts, \"Not enought cards lefts\");\n\t\trequire( saleBundle.price <= msg.value, \"too poor\");\n        for (uint i = saleBundle.soldedCards; i < count; i++) {\n\t\t\tuint cardIdToTransfer = saleBundle.cardIds[i];\n\t\t\t_approve(msg.sender,cardIdToTransfer);\n\t\t\tsafeTransferFrom(address(this),msg.sender,cardIdToTransfer);\n        }\n\t\tsaleBundle.soldedCards += count;\n\t\tif(count == cardsLefts){\n\t\t\tsaleBundle.active = false;\n\t\t\tuint newLen = activeSaleBundleIds.length - 1;\n\t\t\tuint[] memory updatedActiveSaleBundleIds = new uint[](newLen);\n\t\t\tuint indexFix = 0;\n\t\t    for (uint i = 0; i < activeSaleBundleIds.length; i++) {\n\t\t\t\tuint activeSaleBundleId = activeSaleBundleIds[i];\n\t\t\t\tif(activeSaleBundleId != saleBundleId){\n\t\t\t\t\tupdatedActiveSaleBundleIds[i - indexFix] = activeSaleBundleId;\n\t\t\t\t}\n\t\t\t\telse{\n\t\t\t\t\tindexFix = 1;\n\t\t\t\t}\n\t\t\t}\n\t\t\tactiveSaleBundleIds = updatedActiveSaleBundleIds;\n\t\t}\n\t\tsaleBundles[saleBundleId] = saleBundle; // save the updated saleBundle\n\t\tif(saleBundle.owner == owner()){\n\t\t\tpayable(owner()).transfer(msg.value);\n\t\t}\n\t\telse {\n\t\t\tuint ownerRoyalities = (msg.value * (royalities / 100)) / 100;\n\t\t\tpayable(saleBundle.owner).transfer(msg.value-ownerRoyalities);\n\t\t\tpayable(owner()).transfer(ownerRoyalities);\n\t\t}\n\t}\n\n\tfunction _getOwnedCards(address owner) private view returns(Card[] memory){\n\t\tuint ownedTokenIds = ERC721.balanceOf(owner);\n\t\tCard[] memory ownedCards = new Card[](ownedTokenIds); \n\t\tfor (uint i =0; i< ownedTokenIds; i++){\n\t\t\tuint256 ownedTokenId = tokenOfOwnerByIndex(owner,i);\n\t\t\tCard memory ownedCard = cards[ownedTokenId];\n\t\t\townedCards[i] = ownedCard;\n\t\t}\n\t\treturn ownedCards;\n\t}\n\tfunction getOwnedCards() view public returns(Card[] memory) {\n\t\treturn _getOwnedCards(msg.sender);\n\t}\n}\n",
  "sourcePath": "C:\\Users\\Quentin\\Desktop\\RailRoadContract\\contracts\\RailRoadCard.sol",
  "compiler": {
    "name": "solc",
    "version": "0.8.13+commit.abaa5c0e.Emscripten.clang"
  },
  "schemaVersion": "3.4.11",
  "updatedAt": "2022-12-13T17:01:51.504Z",
  "networkType": "ethereum",
  "devdoc": {
    "kind": "dev",
    "methods": {
      "approve(address,uint256)": {
        "details": "See {IERC721-approve}."
      },
      "balanceOf(address)": {
        "details": "See {IERC721-balanceOf}."
      },
      "getApproved(uint256)": {
        "details": "See {IERC721-getApproved}."
      },
      "isApprovedForAll(address,address)": {
        "details": "See {IERC721-isApprovedForAll}."
      },
      "name()": {
        "details": "See {IERC721Metadata-name}."
      },
      "owner()": {
        "details": "Returns the address of the current owner."
      },
      "ownerOf(uint256)": {
        "details": "See {IERC721-ownerOf}."
      },
      "renounceOwnership()": {
        "details": "Leaves the contract without owner. It will not be possible to call `onlyOwner` functions anymore. Can only be called by the current owner. NOTE: Renouncing ownership will leave the contract without an owner, thereby removing any functionality that is only available to the owner."
      },
      "safeTransferFrom(address,address,uint256)": {
        "details": "See {IERC721-safeTransferFrom}."
      },
      "safeTransferFrom(address,address,uint256,bytes)": {
        "details": "See {IERC721-safeTransferFrom}."
      },
      "setApprovalForAll(address,bool)": {
        "details": "See {IERC721-setApprovalForAll}."
      },
      "supportsInterface(bytes4)": {
        "details": "See {IERC165-supportsInterface}."
      },
      "symbol()": {
        "details": "See {IERC721Metadata-symbol}."
      },
      "tokenByIndex(uint256)": {
        "details": "See {IERC721Enumerable-tokenByIndex}."
      },
      "tokenOfOwnerByIndex(address,uint256)": {
        "details": "See {IERC721Enumerable-tokenOfOwnerByIndex}."
      },
      "tokenURI(uint256)": {
        "details": "See {IERC721Metadata-tokenURI}."
      },
      "totalSupply()": {
        "details": "See {IERC721Enumerable-totalSupply}."
      },
      "transferFrom(address,address,uint256)": {
        "details": "See {IERC721-transferFrom}."
      },
      "transferOwnership(address)": {
        "details": "Transfers ownership of the contract to a new account (`newOwner`). Can only be called by the current owner."
      }
    },
    "version": 1
  },
  "userdoc": {
    "kind": "user",
    "methods": {},
    "version": 1
  }
}